:020000040800F2
:1000000000C0002069040008B3040008B50400081B
:10001000B7040008B9040008BB0400080000000091
:10002000000000000000000000000000BD04000807
:10003000BF04000800000000C1040008C304000859
:10004000B1040008B1040008B1040008B1040008BC
:10005000B1040008B1040008B1040008B1040008AC
:10006000B1040008B1040008B1040008B10400089C
:10007000B1040008B1040008B1040008B10400088C
:10008000B1040008B1040008B1040008B10400087C
:10009000B1040008B1040008B1040008B10400086C
:1000A000B1040008B1040008B1040008B10400085C
:1000B000B1040008B1040008B1040008B10400084C
:1000C000B1040008B1040008B1040008B10400083C
:1000D000B1040008B1040008B1040008B10400082C
:1000E000B1040008B1040008B1040008B10400081C
:1000F000B1040008B1040008B1040008B10400080C
:10010000B1040008B1040008B1040008B1040008FB
:10011000B1040008B1040008B1040008B1040008EB
:10012000B1040008B1040008B1040008B1040008DB
:1001300000000000000000000000000000000000BF
:1001400000000000000000000000000000000000AF
:10015000000000000000000000000000000000009F
:10016000000000000000000000000000000000008F
:10017000000000000000000000000000000000007F
:10018000000000000000000000000000000000006F
:10019000000000000000000000000000000000005F
:1001A000000000000000000000000000000000004F
:1001B000000000000000000000000000000000003F
:1001C000000000000000000000000000000000002F
:1001D000000000000000000000000000000000001F
:0401E0005FF8E0F1F3
:1001E40010B5054C237833B9044B13B10448AFF36D
:1001F40000800123237010BD0000002000000000D7
:100204003405000808B5034B1BB103490348AFF399
:10021400008008BD00000000040000203405000830
:1002240070B50F4E0F4D761BB61018BF002405D0C5
:10023400013455F8043B9847A642F9D10A4E0B4DB8
:10024400761B00F075F9B61018BF002406D00134EF
:1002540055F8043B9847A642F9D170BD70BD00BF64
:10026400B0050008B0050008B4050008B005000892
:100274000F4B1A6842F001021A6059680D4A0A408D
:100284005A601A6822F0847222F480321A601A6862
:1002940022F480221A605A6822F4FE025A604FF453
:1002A4001F029A60044B4FF000629A60704700BFCF
:1002B400001002400000FFF800ED00E02DE9F843D3
:1002C40007460E46654B98421BD003F5806398425F
:1002D40017D003F58063984213D003F580639842E6
:1002E4000FD003F5806398420BD003F580639842E6
:1002F40007D003F58063984203D0B221584800F038
:10030400DFF8336833F07B4202D013F07B4F03D025
:10031400B321534800F0D4F83368C3F30F2898FA94
:10032400A8F5B5FA85F56AE0A5F108034FF00114C4
:100334009C4044F080646FE03369012B7CD8716881
:100344004FEA146957F8093094FAA4F2B2FA82F227
:1003540092000F2000FA02F223EA020394FAA4F2B4
:10036400B2FA82F2920001FA02F2134347F809301A
:100374003269F968230A21EA030193FAA3F3B3FA71
:1003840083F302FA03F30B43FB607368012B01D080
:10039400092B33D1B368013B022B52D8F3680BB15C
:1003A400042B53D1B16857F8093094FAA4F2B2FA85
:1003B40082F29200032000FA02F223EA020394FA82
:1003C400A4F2B2FA82F2920001FA02F21A4347F856
:1003D4000920F36894FAA4F1B1FA81F189000420A8
:1003E40000FA01F122EA010294FAA4F4B4FA84F4C2
:1003F400A40003FA04F4144347F80940013538FA19
:1004040005F328D00123AB4013EA080FF6D0072DDB
:100414008AD840F20114AC407368002B8CD0042BB2
:100424008AD0082B88D0012B86D0092B84D0CC21EC
:100434000B4800F045F87FE7CD21094800F040F86B
:100444007DE7D821064800F03BF8A7E7D921044806
:1004540000F036F8A6E70120BDE8F8830008014063
:100464004C050008002103E00B4B5B58435004315A
:100474000A480B4B42189A42F6D30A4A02E0002378
:1004840042F8043B084B9A42F9D3FFF7F1FEFFF719
:10049400C7FE00F039F87047B805000800000020D6
:1004A40000000020000000201C000020FEE7704730
:1004B400FEE7FEE7FEE7FEE77047704770477047C8
:1004C4007047000000B587B00C4B9A6942F04002B7
:1004D4009A619B6903F040030093009B00230493FB
:1004E4000593074B0193012302930223039301A96C
:1004F4000448FFF7E3FE07B05DF804FB0010024078
:10050400020002040018014008B5FFF7DBFF03E016
:100514000133054A9342FBDD044AD36883F4007334
:10052400D3600023F5E700BF400D0300001801402D
:10053400F8B500BFF8BC08BC9E467047F8B500BFCC
:08054400F8BC08BC9E4670479C
:10054C002F686F6D652F637572696F73756C2F579C
:10055C006F726B7370616365732F50726F6A656332
:10056C0074732F65666D2D666978747572652D745C
:10057C0061636F2F706C6174666F726D732F73741F
:10058C006D333266312F48616C2F7372632F737425
:10059C006D3332663178785F6C6C5F6770696F2E83
:0405AC0063000000E8
:0405B0000902000834
:0405B400E501000855
:040000050800046982
:00000001FF
