:020000040800F2
:1000000000C0002015080008910A00089D0A000899
:10001000A50A0008AD0A0008B50A000800000000A3
:10002000000000000000000000000000BD0A000801
:10003000C90A000800000000D50A0008E10A00080B
:10004000590800085908000859080008590800080C
:1000500059080008590800085908000859080008FC
:1000600059080008590800085908000859080008EC
:1000700059080008590800085908000859080008DC
:1000800059080008590800085908000859080008CC
:1000900059080008590800085908000859080008BC
:1000A00059080008590800085908000859080008AC
:1000B0005908000859080008000000005908000805
:1000C000590800080000000000000000590800085E
:1000D000000000005908000859080008000000004E
:1000E00059080008590800085908000800000000D5
:1000F0000000000000000000000000000000000000
:0C01000000000000000000005FF808F1A3
:10010C00044B05481B1A062B02D9044B03B11847A4
:10011C00704700BF43040020400400200000000092
:10012C0005490648091A891001EBD171491002D012
:10013C00034B03B1184770474004002040040020D3
:10014C000000000010B5064C237843B9FFF7D8FF28
:10015C00044B13B10448AFF300800123237010BD8E
:10016C0040040020000000007C0D000808B5084B7E
:10017C001BB108480849AFF300800848036813B95D
:10018C00BDE80840CCE7064B002BF9D09847F7E7C1
:10019C00000000007C0D00084404002040040020F6
:1001AC000000000080B483B000AF786039600C3779
:1001BC00BD465DF8047B704780B588B000AF7860B1
:1001CC0039600023FB6100233B610023BB610023EA
:1001DC00FB6000237B610023BB607B68834A9342F6
:1001EC001BD07B68824A934217D07B68814A93422A
:1001FC0013D07B68804A93420FD07B687F4A93422E
:10020C000BD07B687E4A934207D07B687D4A934231
:10021C0003D07D48B221FFF7C5FF3B68DB78002B8C
:10022C001FD03B68DB78042B1BD03B68DB78282B7A
:10023C0017D03B68DB78482B13D03B68DB78142B4A
:10024C000FD03B68DB78102B0BD03B68DB781C2B7A
:10025C0007D03B68DB78182B03D06B48B321FFF732
:10026C00A1FF3B681B88002B03D16748B421FFF723
:10027C0099FF3B68DB7803F00F03FB613B68DB788D
:10028C0003F01003002B15D03B689B78012B0BD08F
:10029C003B689B78022B07D03B689B78032B03D0E1
:1002AC005948BB21FFF77EFF3B689B781A46FB69D8
:1002BC001343FB613B681B88DBB2002B44D07B688B
:1002CC001B687B610023BB6138E0BB69012202FA29
:1002DC0003F3FB603B681B881A46FB6813403B61C9
:1002EC003A69FB689A4226D1BB699B00FB60FB68AC
:1002FC000F2202FA03F3BB60BB68DB437A6913403D
:10030C007B61FB68FA6902FA03F37A6913437B6138
:10031C003B68DB78282B05D1BB6901229A407B68AE
:10032C005A6108E03B68DB78482B04D1BB69012299
:10033C009A407B681A61BB690133BB61BB69072BAF
:10034C00C3D97B687A691A603B681B88FF2B4AD932
:10035C007B685B687B610023BB613EE0BB69083353
:10036C001A4601239340FB603B681B881A46FB68C6
:10037C0013403B613A69FB689A422BD1BB699B00E5
:10038C00FB60FB680F2202FA03F3BB60BB68DB4324
:10039C007A6913407B61FB68FA6902FA03F37A69A4
:1003AC0013437B613B68DB78282B07D1BB6908338F
:1003BC001A46012303FA02F27B685A613B68DB7828
:1003CC00482B07D1BB6908331A46012303FA02F202
:1003DC007B681A61BB690133BB61BB69072BBDD953
:1003EC007B687A695A602037BD4680BD00080140A1
:1003FC00000C0140001001400014014000180140A5
:10040C00001C014000200140940D000880B584B010
:10041C0000AF78600B467B800023FB737B68364A09
:10042C0093421CD07B68354A934218D07B68344A7F
:10043C00934214D07B68334A934210D07B68324A83
:10044C0093420CD07B68314A934208D07B68304A87
:10045C00934204D02F484FF4A271FFF7A3FE7B8880
:10046C00012B39D07B88022B36D07B88042B33D0E0
:10047C007B88082B30D07B88102B2DD07B88202BB1
:10048C002AD07B88402B27D07B88802B24D07B885C
:10049C00B3F5807F20D07B88B3F5007F1CD07B88A0
:1004AC00B3F5806F18D07B88B3F5006F14D07B88C0
:1004BC00B3F5805F10D07B88B3F5005F0CD07B88E0
:1004CC00B3F5804F08D07B88B3F5004F04D01148AA
:1004DC0040F24511FFF766FE7B68DA687B881340B3
:1004EC00002B02D00123FB7301E00023FB73FB7B89
:1004FC0018461037BD4680BD00080140000C014075
:10050C00001001400014014000180140001C014083
:10051C0000200140940D000880B582B000AF7860D7
:10052C000B467B8013467B707B683A4A93421CD007
:10053C007B68394A934218D07B68384A934214D06E
:10054C007B68374A934210D07B68364A93420CD072
:10055C007B68354A934208D07B68344A934204D076
:10056C00334840F28D11FFF71DFE7B88012B39D0EB
:10057C007B88022B36D07B88042B33D07B88082BCE
:10058C0030D07B88102B2DD07B88202B2AD07B88D9
:10059C00402B27D07B88802B24D07B88B3F5807FA1
:1005AC0020D07B88B3F5007F1CD07B88B3F5806F9F
:1005BC0018D07B88B3F5006F14D07B88B3F5805FBF
:1005CC0010D07B88B3F5005F0CD07B88B3F5804FDF
:1005DC0008D07B88B3F5004F04D015484FF4C77191
:1005EC00FFF7E0FD7B78002B07D07B78012B04D044
:1005FC000F4840F28F11FFF7D5FD7B78002B03D00D
:10060C007A887B681A6102E07A887B685A610837BD
:10061C00BD4680BD00080140000C014000100140A7
:10062C000014014000180140001C01400020014052
:10063C00940D000880B487B000AF786000237B6114
:10064C0000233B610023FB600023BB604D4B5B68C8
:10065C0003F00C037B617B69042B07D0082B09D0BA
:10066C00002B34D17B68484A1A6034E07B68464AD8
:10067C001A6030E0434B5B6803F470133B61414BF1
:10068C005B6803F48033FB603B699B0C02333B617A
:10069C00FB68002B06D13B693C4A02FB03F27B68EA
:1006AC001A6013E0374B5B6803F40033002B06D061
:1006BC003B69364A02FB03F27B681A6006E03B6931
:1006CC00314A02FB03F27B681A6004E003E07B68AA
:1006DC002D4A1A6000BF2B4B5B6803F0F0037B6163
:1006EC007B691B097B612A4A7B6913441B78DBB24B
:1006FC00BB607B681A68BB68DA407B685A60214B28
:10070C005B6803F4E0637B617B691B0A7B61204AB5
:10071C007B6913441B78DBB2BB607B685A68BB688F
:10072C00DA407B689A60174B5B6803F460537B611B
:10073C007B69DB0A7B61164A7B6913441B78DBB24D
:10074C00BB607B685A68BB68DA407B68DA600D4B2B
:10075C005B6803F440437B617B699B0B7B610D4AB7
:10076C007B6913441B78DBB2BB607B68DA68BB68BF
:10077C00B2FBF3F27B681A611C37BD465DF8047B53
:10078C00704700BF0010024000127A0000093D00C3
:10079C00000000201000002080B582B000AF78600F
:1007AC000B46FB707A68154B1340002B02D17B680B
:1007BC00002B04D1124840F24A41FFF7F3FCFB78BE
:1007CC00002B07D0FB78012B04D00D4840F24B4195
:1007DC00FFF7E8FCFB78002B06D00A49094B9A6915
:1007EC007B6813438B6106E00649064B9A697B686C
:1007FC00DB4313408B610837BD4680BD0200C0FF50
:10080C00F40D000800100240002103E00A4B5B5875
:10081C004350043109480A4B42189A42F6D3094A0C
:10082C0002E0002342F8043B074B9A42F9D300F054
:10083C000FF800F0EBF97047A80E0008000000203C
:10084C00400400204004002060040020FEE700006B
:10085C0080B500AF154A154B1B6843F001031360BC
:10086C001249124B5A68124B13404B600F4A0F4BF4
:10087C001B6823F0847323F4803313600B4A0B4BF7
:10088C001B6823F480231360084A084B5B6823F42D
:10089C00FE035360054B4FF41F029A6000F00CF8F6
:1008AC00044B4FF000629A6080BD00BF0010024004
:1008BC000000FFF800ED00E080B500AF00F002F89A
:1008CC0080BD00BF80B483B000AF00237B600023E9
:1008DC003B603A4A394B1B6843F480331360374B07
:1008EC001B6803F400333B607B6801337B603B681F
:1008FC00002B03D17B68B3F5A06FF0D12F4B1B6895
:10090C0003F40033002B02D001233B6001E00023F1
:10091C003B603B68012B4BD1294A294B1B6843F0A8
:10092C0010031360264A264B1B6823F00303136045
:10093C00234A234B1B6843F0020313601F4A1F4BCF
:10094C005B6853601D4A1D4B5B6853601B4A1B4B15
:10095C005B6843F480635360184A184B5B6823F45C
:10096C007C135360154A154B5B6843F4E8135360D2
:10097C00124A124B1B6843F08073136000BF0F4B7D
:10098C001B6803F00073002BF9D00C4A0B4B5B680F
:10099C0023F003035360094A084B5B6843F00203DE
:1009AC00536000BF054B5B6803F00C03082BF9D1B7
:1009BC000C37BD465DF8047B704700BF0010024049
:1009CC000020024080B483B000AF03463960FB7155
:1009DC0097F90730002B0BDA0D49FB7903F00F0365
:1009EC00043B3A68D2B21201D2B20B441A7609E037
:1009FC00084997F907303A68D2B21201D2B20B44C7
:100A0C0083F800230C37BD465DF8047B704700BFAC
:100A1C0000ED00E000E100E080B582B000AF78604E
:100A2C007B68013BB3F1807F01D301230FE00A4ABD
:100A3C007B68013B53604FF0FF300F21FFF7C2FF83
:100A4C00054B00229A60044B07221A6000231846BB
:100A5C000837BD4680BD00BF10E000E080B588B00F
:100A6C0000AF786007F10C031846FFF7E3FD3A6915
:100A7C007B68B2FBF3F31846FFF7CEFF2037BD4679
:100A8C0080BD00BF80B400AFBD465DF8047B7047ED
:100A9C0080B400AFFEE700BF80B400AFFEE700BF3C
:100AAC0080B400AFFEE700BF80B400AFFEE700BF2C
:100ABC0080B400AFBD465DF8047B704780B400AFD6
:100ACC00BD465DF8047B704780B400AFBD465DF851
:100ADC00047B704780B400AF044B1B680133034A9E
:100AEC001360BD465DF8047B704700BF5C040020BA
:100AFC0080B584B000AF78600B467B807B683B4A46
:100B0C0093421BD07B683A4A934217D07B68394A90
:100B1C00934213D07B68384A93420FD07B68374A94
:100B2C0093420BD07B68364A934207D07B68354A98
:100B3C00934203D034480921FFF734FB7B88002B08
:100B4C0003D131480A21FFF72DFB7B68274A9342DA
:100B5C0004D104200121FFF71FFE35E07B68244AF5
:100B6C00934204D108200121FFF716FE2CE07B688C
:100B7C00204A934204D110200121FFF70DFE23E0FF
:100B8C007B681D4A934204D120200121FFF704FE0B
:100B9C001AE07B68194A934204D140200121FFF7E7
:100BAC00FBFD11E07B68164A934204D180200121A1
:100BBC00FFF7F2FD08E07B68124A934204D14FF430
:100BCC0080700121FFF7E8FD0023FB607B88BB816F
:100BDC001023FB730123BB7307F10C0378681946D0
:100BEC00FFF7EAFA1037BD4680BD00BF0008014090
:100BFC00000C01400010014000140140001801409D
:100C0C00001C014000200140540E000880B584B047
:100C1C0000AF4FF47A70FFF721FF17484FF40071C3
:100C2C00FFF766FF0023FB60144B1A68FB68D31AAE
:100C3C00B3F57A7F1FD3114B1B68FB600F4B1B68FE
:100C4C00BB600D484FF40071FFF7E0FB0346002B2F
:100C5C000CBF01230023DBB207484FF400711A4686
:100C6C00FFF75AFC054B1B687B607A68BB68D31A8C
:100C7C00012B00D9FEE7D7E7001801405C040020E7
:100C8C00014600200246034600F016B838B5084B62
:100C9C00084DED1AAC1018BFED1805D0013C55F8F5
:100CAC00043D9847002CF9D1BDE8384000F066B8F7
:100CBC00A40E0008A80E00082DE9F047254C256865
:100CCC00D5F848410646884692469946CCB36068AA
:100CDC001F2818DC431C7EB104EB80050121C5F8EC
:100CEC0088A0D4F8887101FA00F21743022EC4F8D8
:100CFC008871C5F808911ED00230636044F82080DA
:100D0C000020BDE8F087144B03B34FF4C870AFF369
:100D1C0000800446D0B1D5F84831002780E888001F
:100D2C00C5F8484138460123C4F88871C4F88C7161
:100D3C00002EE1D0D0E7D4F88C110A43C4F88C21F2
:100D4C00DAE705F5A674C5F84841C0E74FF0FF3067
:100D5C00BDE8F087980E000800000000024B13B1AC
:100D6C000248FFF78DBF704700000000990C000887
:100D7C00F8B500BFF8BC08BC9E467047F8B500BF7C
:080D8C00F8BC08BC9E4670474C
:100D94002F686F6D652F637572696F73756C2F574C
:100DA4006F726B7370616365732F535433322F53B7
:100DB4005433322D434D616B652D432D536B656C5C
:100DC40065746F6E2F706C6174666F726D732F73C0
:100DD400746D333266312F48616C2F7372632F73D5
:100DE400746D3332663130785F6770696F2E6300DB
:100DF4002F686F6D652F637572696F73756C2F57EC
:100E04006F726B7370616365732F535433322F5356
:100E14005433322D434D616B652D432D536B656CFB
:100E240065746F6E2F706C6174666F726D732F735F
:100E3400746D333266312F48616C2F7372632F7374
:100E4400746D3332663130785F7263632E630000F1
:100E54002F686F6D652F637572696F73756C2F578B
:100E64006F726B7370616365732F535433322F53F6
:100E74005433322D434D616B652D432D536B656C9B
:100E840065746F6E2F7372632F6D61696E2E6300CC
:080E94004300000018000020DB
:080E9C00690D0008790100084E
:040EA40051010008F0
:100EA8000000000001020304010203040607080908
:100EB80002040608000000000000000004030020EF
:100EC8006C030020D4030020000000000000000094
:100ED800000000000000000000000000000000000A
:100EE800000000000000000000000000940E000850
:100EF80000000000000000000000000000000000EA
:100F080000000000000000000000000000000000D9
:100F180000000000000000000000000000000000C9
:100F280000000000000000000000000000000000B9
:100F380000000000000000000000000000000000A9
:100F48000000000000000000000000000000000099
:100F58000000000000000000000000000000000089
:100F680001000000000000000E33CDAB34126DE626
:100F7800ECDE05000B00000000000000000000008F
:100F88000000000000000000000000000000000059
:100F98000000000000000000000000000000000049
:100FA8000000000000000000000000000000000039
:100FB8000000000000000000000000000000000029
:0400000508000815D2
:00000001FF
