:020000040800F2
:1000000000C00020190600086506000871060008F7
:100010007906000881060008890600080000000033
:100020000000000000000000000000009106000831
:100030009D06000800000000A9060008B50600089B
:1000400061060008610600086106000861060008F4
:1000500061060008610600086106000861060008E4
:1000600061060008610600086106000861060008D4
:1000700061060008610600086106000861060008C4
:1000800061060008610600086106000861060008B4
:1000900061060008610600086106000861060008A4
:1000A0006106000861060008610600086106000894
:1000B0006106000861060008610600086106000884
:1000C0006106000861060008610600086106000874
:1000D0006106000861060008610600086106000864
:1000E0006106000861060008610600086106000854
:1000F0006106000861060008610600086106000844
:100100006106000861060008610600086106000833
:100110006106000861060008610600086106000823
:100120006106000861060008610600086106000813
:1001300000000000000000000000000000000000BF
:1001400000000000000000000000000000000000AF
:10015000000000000000000000000000000000009F
:10016000000000000000000000000000000000008F
:10017000000000000000000000000000000000007F
:10018000000000000000000000000000000000006F
:10019000000000000000000000000000000000005F
:1001A000000000000000000000000000000000004F
:1001B000000000000000000000000000000000003F
:1001C000000000000000000000000000000000002F
:1001D000000000000000000000000000000000001F
:0401E0005FF8E0F1F3
:1001E400044B05481B1A062B02D9044B03B11847CC
:1001F400704700BF03000020000000200000000042
:1002040005490648091A891001EBD171491002D039
:10021400034B03B118477047000000200000002082
:100224000000000010B5064C237843B9FFF7D8FF4F
:10023400044B13B10448AFF300800123237010BDB5
:1002440000000020000000000008000808B5084B6A
:100254001BB108480849AFF300800848036813B984
:10026400BDE80840CCE7064B002BF9D09847F7E7E8
:100274000000000000080008040000200000002026
:100284000000000080B400AF154A154B1B6843F012
:10029400010313601249124B5A68124B13404B600E
:1002A4000F4A0F4B1B6823F0847323F480331360CD
:1002B4000B4A0B4B1B6823F480231360084A084B3A
:1002C4005B6823F4FE035360054B4FF41F029A60EE
:1002D400054B4FF000629A60BD465DF8047B7047A1
:1002E400001002400000FFF800ED00E090B488B078
:1002F40000AFF860B9607A60FB681A46BB681B0EF1
:1003040013441C462268BB68FB61FB6993FAA3F3A0
:10031400BB61BB69B3FA83F39B0019460F238B407F
:10032400DB431A40BB687B617B6993FAA3F33B61AF
:100334003B69B3FA83F39B0019467B688B401343F4
:1003440023602037BD4690BC704700BF90B488B08E
:1003540000AFF860B9607A60FB681A46BB681B0E90
:1003640013441C462268BB68FB61FB6993FAA3F340
:10037400BB61BB69B3FA83F39B00194603238B402B
:10038400DB431A40BB687B617B6993FAA3F33B614F
:100394003B69B3FA83F39B0019467B688B40134394
:1003A40023602037BD4690BC704700BF90B488B02E
:1003B40000AFF860B9607A60FB681A46BB681B0E30
:1003C40013441C462268BB68FB61FB6993FAA3F3E0
:1003D400BB61BB69B3FA83F39B00194604238B40CA
:1003E400DB431A40BB687B617B6993FAA3F33B61EF
:1003F4003B69B3FA83F39B0019467B688B40134334
:1004040023602037BD4690BC704700BF80B487B0DE
:1004140000AFF860B9607A60FB68DA68BB681B0AF1
:10042400DB431A40BB681B0A7B617B6993FAA3F325
:100434003B613B69B3FA83F3796801FA03F31A4326
:10044400FB68DA601C37BD465DF8047B704700BF6B
:1004540080B588B000AF786039607B68654A9342A4
:100464001BD07B68644A934217D07B68634A9342EB
:1004740013D07B68624A93420FD07B68614A9342EF
:100484000BD07B68604A934207D07B685F4A9342F3
:1004940003D05F48B22100F011F93B681B6823F0D8
:1004A4007B43002B05D03B681B6803F07B43002B88
:1004B40003D05748B32100F001F93B681B681B02C5
:1004C4001B0C7B617B693B613B6993FAA3F3FB6083
:1004D400FB68B3FA83F3FB6180E0FB6901229A4075
:1004E4007B691340002B76D0FB69072B06D8FB6988
:1004F40040F2011202FA03F3BB6108E0FB69083B16
:100504001A464FF00113934043F08063BB613B688C
:100514005B68002B13D03B685B68042B0FD03B68EF
:100524005B68082B0BD03B685B68012B07D03B68EA
:100534005B68092B03D03648CC2100F0BFF83B6838
:100544001B69002B07D03B681B69012B03D0304883
:10055400CD2100F0B3F83B685B687868B9691A4646
:10056400FFF7C4FE3B681B697868B9691A46FFF750
:100574004DFF3B685B68012B03D03B685B68092B2C
:1005840029D13B689B68022B0BD03B689B68012BED
:1005940007D03B689B68032B03D01D48D82100F08B
:1005A4008DF83B68DB68002B07D03B68DB68042BC5
:1005B40003D01748D92100F081F83B689B6878681C
:1005C400B9691A46FFF7C2FE3B68DB687868B96907
:1005D4001A46FFF7EBFEFB690133FB61FB697A699D
:1005E40022FA03F3002B7FF478AF01231846203757
:1005F400BD4680BD00080140000C014000100140D0
:100604000014014000180140001C0140002001407A
:1006140018080008002103E00B4B5B5843500431D9
:100624000A480B4B42189A42F6D30A4A02E00023C6
:1006340042F8043B084B9A42F9D3FFF723FE00F03B
:10064400B7F800F09BF87047740800080000002019
:1006540000000020000000201C000020FEE7000035
:1006640080B400AFBD465DF8047B704780B400AF32
:10067400FEE700BF80B400AFFEE700BF80B400AF68
:10068400FEE700BF80B400AFFEE700BF80B400AF58
:10069400BD465DF8047B704780B400AFBD465DF88D
:1006A400047B704780B400AFBD465DF8047B70479F
:1006B40080B400AFBD465DF8047B704780B483B05E
:1006C40000AF786039600C37BD465DF8047B704735
:1006D40080B483B000AF786039607B68DA683B68C7
:1006E4001B0A9BB25A407B68DA600C37BD465DF842
:1006F400047B704780B485B000AF78600849084B2C
:100704009A697B6813438B61054B9A697B68134034
:10071400FB60FB681437BD465DF8047B704700BF7F
:100724000010024080B586B000AF4020FFF7E2FF22
:100734003B1D00221A60043300221A600433002295
:100744001A60043300221A60043300221A6004334E
:10075400084B7B600123BB600223FB6000233B61E9
:1007640000237B613B1D04481946FFF771FE1837CF
:10077400BD4680BD020002040018014080B582B06D
:1007840000AFFFF7CFFF07480749FFF7A1FF00239A
:100794007B6002E07B6801337B607B68034A9342A1
:1007A400F8DDF0E70018014002000204400D0300E8
:1007B40070B50E4B0E4CE41AA41000251E46A5423B
:1007C40004D056F8253098470135F8E700F016F8BC
:1007D400084C094BE41AA41000251E46A54204D077
:1007E40056F8253098470135F8E770BD6C080008C5
:1007F4006C080008700800086C080008F8B500BF11
:10080400F8BC08BC9E467047F8B500BFF8BC08BCED
:040814009E46704745
:100818002F686F6D652F637572696F73756C2F57CD
:100828006F726B7370616365732F535433322F5437
:100838006573745F432F706C6174666F726D732F8C
:1008480073746D333266312F48616C2F7372632F66
:1008580073746D3332663178785F6C6C5F6770697A
:040868006F2E63008C
:04086C00510200082D
:040870002902000851
:0400000508000619D0
:00000001FF
