:020000040800F2
:1000000000C00020050600084F0600085B06000837
:1000100061060008670600086D0600080000000081
:10002000000000000000000000000000730600084F
:100030007F060008000000008B06000897060008F5
:100040004D0600084D0600084D0600084D06000844
:100050004D0600084D0600084D0600084D06000834
:100060004D0600084D0600084D0600084D06000824
:100070004D0600084D0600084D0600084D06000814
:100080004D0600084D0600084D0600084D06000804
:100090004D0600084D0600084D0600084D060008F4
:1000A0004D0600084D0600084D0600084D060008E4
:1000B0004D0600084D0600084D0600084D060008D4
:1000C0004D0600084D0600084D0600084D060008C4
:1000D0004D0600084D0600084D0600084D060008B4
:1000E0004D0600084D0600084D0600084D060008A4
:1000F0004D0600084D0600084D0600084D06000894
:100100004D0600084D0600084D0600084D06000883
:100110004D0600084D0600084D0600084D06000873
:100120004D0600084D0600084D0600084D06000863
:1001300000000000000000000000000000000000BF
:1001400000000000000000000000000000000000AF
:10015000000000000000000000000000000000009F
:10016000000000000000000000000000000000008F
:10017000000000000000000000000000000000007F
:10018000000000000000000000000000000000006F
:10019000000000000000000000000000000000005F
:1001A000000000000000000000000000000000004F
:1001B000000000000000000000000000000000003F
:1001C000000000000000000000000000000000002F
:1001D000000000000000000000000000000000001F
:0401E0005FF8E0F1F3
:1001E40010B5054C237833B9044B13B10448AFF36D
:1001F40000800123237010BD0000002000000000D7
:100204008807000808B5034B1BB103490348AFF343
:10021400008008BD000000000400002088070008DA
:1002240070B50F4E0F4D761BB61018BF002405D0C5
:10023400013455F8043B9847A642F9D10A4E0B4DB8
:10024400761B00F09FFAB61018BF002406D00134C4
:1002540055F8043B9847A642F9D170BD70BD00BF64
:100264000408000804080008080800080408000836
:1002740080B400AF154B1B68144A43F001031360AC
:10028400124B5A681149124B13404B600F4B1B68B9
:100294000E4A23F0847323F4803313600B4B1B68E2
:1002A4000A4A23F480231360084B5B68074A23F44B
:1002B400FE035360054B4FF41F029A60054B4FF049
:1002C40000629A6000BFBD4680BC704700100240C7
:1002D4000000FFF800ED00E090B488B000AFF860D3
:1002E400B9607A60FB681A46BB681B0E13441C464F
:1002F4002268BB687B617B6993FAA3F33B613B692A
:10030400B3FA83F39B000F2101FA03F3DB431A4092
:10031400BB68FB61FB6993FAA3F3BB61BB69B3FAE6
:1003240083F39B00796801FA03F31343236000BF4E
:100334002037BD4690BC704790B488B000AFF860D9
:10034400B9607A60FB681A46BB681B0E13441C46EE
:100354002268BB687B617B6993FAA3F33B613B69C9
:10036400B3FA83F39B00032101FA03F3DB431A403E
:10037400BB68FB61FB6993FAA3F3BB61BB69B3FA86
:1003840083F39B00796801FA03F31343236000BFEE
:100394002037BD4690BC704790B488B000AFF86079
:1003A400B9607A60FB681A46BB681B0E13441C468E
:1003B4002268BB687B617B6993FAA3F33B613B6969
:1003C400B3FA83F39B00042101FA03F3DB431A40DD
:1003D400BB68FB61FB6993FAA3F3BB61BB69B3FA26
:1003E40083F39B00796801FA03F31343236000BF8E
:1003F4002037BD4690BC704780B487B000AFF8602A
:10040400B9607A60FB68DA68BB681B0ADB431A4090
:10041400BB681B0A7B617B6993FAA3F33B613B696D
:10042400B3FA83F3796801FA03F31A43FB68DA60D9
:1004340000BF1C37BD4680BC7047000080B588B043
:1004440000AF786039607B68654A93421BD07B6853
:10045400644A934217D07B68634A934213D07B6803
:10046400624A93420FD07B68614A93420BD07B6807
:10047400604A934207D07B685F4A934203D0B2211B
:100484005E4800F00CF93B681B6823F07B43002BAB
:1004940005D03B681B6803F07B43002B03D0B321DA
:1004A400564800F0FCF83B681B681B021B0C7B6180
:1004B4007B693B613B6993FAA3F3FB60FB68B3FA86
:1004C40083F3FB6180E00122FB699A407B6913405E
:1004D400002B76D0FB69072B06D840F20112FB698A
:1004E40002FA03F3BB6108E0FB69083B4FF0011219
:1004F40002FA03F343F08063BB613B685B68002B43
:1005040013D03B685B68042B0FD03B685B68082BF7
:100514000BD03B685B68012B07D03B685B68092BF9
:1005240003D0CC21354800F0BAF83B681B69002B96
:1005340007D03B681B69012B03D0CD212F4800F065
:10054400AEF83B685B681A46B9697868FFF7C4FE81
:100554003B681B691A46B9697868FFF74DFF3B6829
:100564005B68012B03D03B685B68092B29D13B688E
:100574009B68022B0BD03B689B68012B07D03B6820
:100584009B68032B03D0D8211C4800F088F83B68F3
:10059400DB68002B07D03B68DB68042B03D0D92130
:1005A400164800F07CF83B689B681A46B96978687D
:1005B400FFF7C2FE3B68DB681A46B9697868FFF743
:1005C400EBFEFB690133FB617A69FB6922FA03F3F1
:1005D400002B7FF478AF012318462037BD4680BD39
:1005E40000080140000C01400010014000140140CB
:1005F40000180140001C014000200140A007000831
:10060400002103E00B4B5B58435004310A480B4B69
:1006140042189A42F6D30A4A02E0002342F8043B05
:10062400084B9A42F9D3FFF723FEFFF7F9FD00F0D8
:100634008FF870470C08000800000020000000201C
:10064400000000201C000020FEE780B400AF00BFC3
:10065400BD4680BC704780B400AFFEE780B400AFF5
:10066400FEE780B400AFFEE780B400AFFEE780B4DD
:1006740000AF00BFBD4680BC704780B400AF00BF70
:10068400BD4680BC704780B400AF00BFBD4680BC8F
:10069400704780B400AF00BFBD4680BC704780B4D3
:1006A40083B000AF7860396000BF0C37BD4680BCB2
:1006B400704780B483B000AF786039607B68DA68D3
:1006C4003B681B0A9BB25A407B68DA6000BF0C3758
:1006D400BD4680BC7047000080B485B000AF786030
:1006E400084B9A6907497B6813438B61054B9A69E8
:1006F4007B681340FB60FB6800BF1437BD4680BCB9
:10070400704700BF0010024080B586B000AF4020A3
:10071400FFF7E2FF3B1D00221A605A609A60DA601C
:100724001A61094B7B600123BB600223FB60002339
:100734003B6100237B613B1D19460448FFF77EFEA5
:1007440000BF1837BD4680BD0200020400180140F6
:1007540080B582B000AFFFF7D7FF07490748FFF71E
:10076400A8FF00237B6002E07B6801337B607B6829
:10077400034A9342F8DDF0E7020002040018014046
:10078400400D0300F8B500BFF8BC08BC9E46704796
:0C079400F8B500BFF8BC08BC9E467047DA
:1007A0002F686F6D652F637572696F73756C2F5746
:1007B0006F726B7370616365732F535433322F53B1
:1007C0005433322D434D616B652D432D536B656C56
:1007D00065746F6E2F706C6174666F726D732F73BA
:1007E000746D333266312F48616C2F7372632F73CF
:1007F000746D3332663178785F6C6C5F6770696FE7
:040800002E63000063
:0408040009020008DD
:04080800E5010008FE
:0400000508000605E4
:00000001FF
