:020000040800F2
:1000000000A0002051040008A3040008A504000873
:10001000A7040008A9040008AB04000800000000C1
:10002000000000000000000000000000AD04000817
:10003000AF04000800000000B1040008B304000889
:10004000A1040008A1040008A1040008A1040008FC
:10005000A1040008A1040008A1040008A1040008EC
:10006000A1040008A1040008A1040008A1040008DC
:10007000A1040008A1040008A1040008A1040008CC
:10008000A1040008A1040008A1040008A1040008BC
:10009000A1040008A1040008A1040008A1040008AC
:1000A000A1040008A1040008A1040008A10400089C
:1000B000A1040008A1040008A1040008A10400088C
:1000C000A1040008A1040008A1040008A10400087C
:1000D000A1040008A1040008A1040008A10400086C
:1000E000A1040008A1040008A1040008A10400085C
:1000F000A1040008A1040008A1040008A10400084C
:10010000000000000000000000000000A104000842
:10011000A1040008A1040008A1040008A10400082B
:10012000A1040008A1040008A1040008A10400081B
:10013000A1040008A1040008000000000000000065
:10014000A1040008A1040008A104000800000000A8
:10015000000000000000000000000000000000009F
:100160000000000000000000A1040008A104000835
:10017000A1040008000000000000000000000000D2
:0801800000000000A1040008CA
:1001880010B5054C237833B9044B13B10448AFF3C9
:1001980000800123237010BD000000200000000033
:1001A8002405000808B5034B1BB103490348AFF306
:1001B800008008BD0000000004000020240500089D
:1001C80070B50F4E0F4D761BB61018BF002405D022
:1001D800013455F8043B9847A642F9D10A4E0B4D15
:1001E800761B00F09BF9B61018BF002406D0013426
:1001F80055F8043B9847A642F9D170BD70BD00BFC1
:10020800A0050008A0050008A4050008A00500082E
:10021800124B1A6842F001021A605968104A0A40E3
:100228005A601A6822F0847222F480321A601A68BE
:1002380022F480221A605A6822F4FE025A60DA6AAE
:1002480022F00F02DA62196B064A0A401A6300228A
:100258009A60054B4FF000629A60704700100240A8
:100268000CC07FF8CCFC00FF00ED00E0F8B50746B5
:100278000D46B0F1904F16D0714B984213D003F54C
:10028800806398420FD003F5806398420BD003F542
:100298008063984207D003F58063984203D0C82151
:1002A800684800F003F92B68013B4FF6FE72934251
:1002B8000BD86B68032B0DD82B69022B0FD82E682F
:1002C80096FAA6F6B6FA86F63CE0C9215D4800F033
:1002D800EDF8EEE7CA215B4800F0E8F8ECE7CB213F
:1002E800584800F0E3F8EAE7A968BB6894FAA4F272
:1002F800B2FA82F25200032000FA02F223EA020361
:1003080094FAA4F2B2FA82F2520001FA02F213430A
:10031800BB602969FB6894FAA4F2B2FA82F252002F
:10032800032000FA02F223EA020394FAA4F2B2FAD2
:1003380082F2520001FA02F21343FB606B68022B4F
:100348002BD001362B6833FA06F261D00124B44071
:100358001C40F6D069683B6894FAA4F2B2FA82F2BB
:100368005200032000FA02F223EA020394FAA4F2EC
:10037800B2FA82F2520001FA02F213433B606B6850
:10038800013B012BC5D8AB68012BADD98342ABD05B
:10039800DF212C4800F08AF8A6E76B690F2B1BD8E1
:1003A80094FAA4F3B3FA83F3072B1AD869693A6A63
:1003B80094FAA4F3B3FA83F39B000F2000FA03F333
:1003C80022EA030294FAA4F3B3FA83F39B0001FA36
:1003D80003F313433B62B4E7EB211A4800F066F8D5
:1003E800DEE76A69796A230A93FAA3F0B0FA80F023
:1003F80080000F2404FA00F021EA000193FAA3F325
:10040800B3FA83F39B0002FA03F30B437B6298E78A
:100418006B68013B012B01D90020F8BDEB68012B6B
:1004280009D82968EA687B6823EA010302FB01F21C
:1004380013437B60F0E7FE21024800F037F8F0E74D
:10044800000400483C050008DFF834D0002103E030
:100458000C4B5B58435004310B480C4B42189A42E2
:10046800F6D30B4A02E0002342F8043B094B9A42B8
:10047800F9D3FFF7CDFEFFF7A3FE00F03BF8FEE748
:1004880000A00020A80500080000002000000020AF
:10049800000000201C000020FEE77047FEE7FEE792
:1004A800FEE7FEE7704770477047704770470000E7
:1004B80000B589B00D4B5A6942F400125A615B6964
:1004C80003F400130193019B0023049305930793FE
:1004D8004FF400730293012303930223069302A9A6
:1004E8000348FFF7C3FE09B05DF804FB00100240A3
:1004F8000010004808B5FFF7DBFF03E00133054AA9
:100508009342FBDD044A536983F40073536100236B
:10051800F5E700BF400D030000100048F8B500BF24
:10052800F8BC08BC9E467047F8B500BFF8BC08BCCC
:040538009E46704724
:10053C002F686F6D652F637572696F73756C2F57AC
:10054C006F726B7370616365732F50726F6A656342
:10055C0074732F65666D2D666978747572652D746C
:10056C0061636F2F706C6174666F726D732F73742F
:10057C006D333266332F48616C2F7372632F737433
:10058C006D3332663378785F6C6C5F6770696F2E91
:04059C0063000000F8
:0405A000AD010008A1
:0405A40089010008C1
:04000005080004519A
:00000001FF
