:020000040800F2
:1000000000C000200D0500088D0300088F030008C4
:100010009103000893030008950300080000000006
:10002000000000000000000000000000970300082E
:1000300099030008000000009B0300089D030008CE
:100040005505000855050008550500085505000828
:100050005505000855050008550500085505000818
:100060005505000855050008550500085505000808
:1000700055050008550500085505000855050008F8
:1000800055050008550500085505000855050008E8
:1000900055050008550500085505000855050008D8
:1000A00055050008550500085505000855050008C8
:1000B00055050008550500085505000855050008B8
:1000C00055050008550500085505000855050008A8
:1000D0005505000855050008550500085505000898
:1000E0005505000855050008550500085505000888
:1000F0005505000855050008550500085505000878
:100100005505000855050008550500085505000867
:100110005505000855050008550500085505000857
:100120005505000855050008550500085505000847
:1001300000000000000000000000000000000000BF
:1001400000000000000000000000000000000000AF
:10015000000000000000000000000000000000009F
:10016000000000000000000000000000000000008F
:10017000000000000000000000000000000000007F
:10018000000000000000000000000000000000006F
:10019000000000000000000000000000000000005F
:1001A000000000000000000000000000000000004F
:1001B000000000000000000000000000000000003F
:1001C000000000000000000000000000000000002F
:1001D000000000000000000000000000000000001F
:0401E0005FF8E0F1F3
:1001E40010B5054C237833B9044B13B10448AFF36D
:1001F40000800123237010BD0400002000000000D3
:10020400A005000808B5034B1BB103490348AFF32D
:10021400008008BD0000000008000020A0050008C0
:1002240030B587B0002504950595104B9A6942F0C6
:1002340040029A619B6903F040030093009B0C4CBD
:100244004FF4385363610B4B019301230293022350
:10025400039301A9204600F0A0F8074B01930295EF
:1002640001A9204600F099F807B030BD0010024003
:10027400001801402E002E041000100410B51C4B71
:100284001A6822F007021A601B681A4A136823F0DE
:10029400F80343F080031360136843F00103136011
:1002A400144B1B6813F0020FFAD0124B5A6822F059
:1002B400F0025A605A6822F4E0625A605A6822F4E2
:1002C40060525A605A6822F003025A60094B5B6814
:1002D40013F00C0FFAD1084C204600F0D9F8074A65
:1002E400136843F004031360204600F0E1F810BDE6
:1002F400002002400010024000127A0010E000E0EA
:1003040000B583B01A4B9A6942F001029A619A6966
:1003140002F001020192019ADA6942F08052DA6134
:10032400DB6903F080530093009B1249CA6822F4EE
:10033400E0621204120C104B1343CB600F4B5A684B
:1003440022F0E0625A605A6842F080625A60FFF715
:1003540095FFFFF765FF03E00133094A9342FBDD94
:10036400084AD36883F40073D3600023F5E700BF21
:100374000010024000ED00E00003FA050000014017
:10038400DF220200001801407047FEE7FEE7FEE7A7
:10039400FEE77047704770477047F0B50D68C5F3C6
:1003A4000F2595FAA5F2B2FA82F235E0A2F108041B
:1003B4004FF00113A34043F0806339E0C45993FA2A
:1003C400A3F6B6FA86F6B6004FF0030C0CFA06F65E
:1003D40024EA060C93FAA3F6B6FA86F6B6008C68FD
:1003E40004FA06F646EA0C06C651CC6893FAA3FC56
:1003F400BCFA8CFC4FEA8C0C4FF0040E0EFA0CFC89
:1004040026EA0C0693FAA3F3B3FA83F39B0004FAE7
:1004140003F33343C351013235FA02F335D00123D8
:1004240093402B42F7D0072AC0D840F201139340DF
:100434004E681F0EC45993FAA3FCBCFA8CFC4FEA15
:100444008C0C4FF00F0E0EFA0CFC24EA0C0493FAF9
:10045400A3FCBCFA8CFC4FEA8C0C06FA0CF6344371
:10046400C451C6681C0A26EA040C94FAA4F4B4FA2B
:1004740084F40E6906FA04F44CEA0404C4604C687B
:10048400012C9BD0092CC6D198E70120F0BD0000B7
:10049400054BA3FB003080090138044B586000224F
:1004A4009A6005221A607047D34D621010E000E094
:1004B400014B1860704700BF000000200F4B1A6802
:1004C40042F001021A6059680D4A0A405A601A68DB
:1004D40022F0847222F480321A601A6822F4802294
:1004E4001A605A6822F4FE025A604FF41F029A609E
:1004F400044B4FF000629A60704700BF0010024046
:100504000000FFF800ED00E0002103E00B4B5B5816
:10051400435004310A480B4B42189A42F6D30A4A14
:1005240002E0002342F8043B084B9A42F9D3FFF758
:10053400C5FF00F00FF8FFF7E3FE7047C0050008A1
:1005440000000020040000200400002020000020FF
:10055400FEE7000070B500250C4E0D4CA41BA41042
:10056400A54209D100F01AF800250A4E0A4CA41B32
:10057400A410A54205D170BD56F825309847013521
:10058400EEE756F8253098470135F2E7B80500083C
:10059400B8050008B8050008BC050008F8B500BF98
:1005A400F8BC08BC9E467047F8B500BFF8BC08BC50
:0405B4009E467047A8
:0405B800090200082C
:0405BC00E50100084D
:0405C00000A24A0447
:040000050800050DDD
:00000001FF
