:020000040800F2
:1000000000A00020A90F00083107000833070008EE
:10001000350700083707000839070008000000000E
:100020000000000000000000000000003B07000886
:100030003D070008000000003F07000841070008D6
:10004000F90F0008F90F0008F90F0008F90F000870
:10005000F90F0008F90F0008F90F0008F90F000860
:10006000F90F0008F90F0008F90F0008F90F000850
:10007000F90F0008F90F0008F90F0008F90F000840
:10008000F90F0008F90F0008F90F0008F90F000830
:10009000F90F0008F90F0008F90F0008F90F000820
:1000A000F90F0008F90F0008F90F0008F90F000810
:1000B000F90F0008F90F0008F90F0008F90F000800
:1000C000F90F0008F90F0008F90F0008F90F0008F0
:1000D000F90F0008F90F0008F90F0008F90F0008E0
:1000E000F90F0008F90F0008F90F0008F90F0008D0
:1000F000F90F0008F90F0008F90F0008F90F0008C0
:10010000000000000000000000000000F90F0008DF
:10011000F90F0008F90F0008F90F0008F90F00089F
:10012000F90F0008F90F0008F90F0008F90F00088F
:10013000F90F0008F90F000800000000000000009F
:10014000F90F0008F90F0008F90F0008000000007F
:10015000000000000000000000000000000000009F
:100160000000000000000000F90F0008F90F00086F
:10017000F90F00080000000000000000000000006F
:0801800000000000F90F000867
:1001880010B5054C237833B9044B13B10448AFF3C9
:1001980000800123237010BD0C0000200000000027
:1001A8005410000808B5034B1BB103490348AFF3CB
:1001B800008008BD00000000100000205410000856
:1001C8002DE9F0478EB00026089609960A960B96F8
:1001D8000C960D96059606960796A44B5A6942F416
:1001E80000125A615A6902F400120492049A5A6978
:1001F80042F400225A615A6902F400220392039AD7
:100208005A6942F480025A615A6902F480020292E1
:10021800029A5A6942F400325A615A6902F4003269
:100228000192019A5A6942F480225A615B6903F487
:1002380080230093009B8E4D4FF6087AC5F828A0BE
:100248008C4B986820F470604FF4706191FAA1F1BA
:10025800B1FA81F1042202FA01F101439960D968E7
:1002680021F00F010F2090FAA0F4B4FA84F402FAF6
:1002780004F42143D960DC6824F0F004F02191FAF9
:10028800A1F7B7FA87F702FA07F73C43DC609C68E6
:1002980024F00F0490FAA0F0B0FA80F002FA00F00F
:1002A80020439860986820F0F00091FAA1F1B1FA23
:1002B80081F102FA01F101439960E86892FAA2F12A
:1002C800B1FA81F14900032303FA01F120EA01019F
:1002D80092FAA2F0E960E8684FF0100999FAA9F1DA
:1002E800B1FA81F1490003FA01F120EA010199FA12
:1002F800A9F0E960E8684FF0200898FAA8F1B1FA87
:1003080081F1490003FA01F120EA010198FAA8F005
:10031800E960E868012494FAA4F1B1FA81F1A140F6
:1003280003FA01F120EA010194FAA4F0E960E8680F
:10033800022797FAA7F1B1FA81F1A14003FA01F176
:1003480020EA010197FAA7F0E960286892FAA2F179
:10035800B1FA81F1A14003FA01F120EA010192FA10
:10036800A2F02960286899FAA9F1B1FA81F1A140AF
:1003780003FA01F120EA010199FAA9F02960286835
:1003880098FAA8F1B1FA81F1A14003FA01F120EA43
:10039800010198FAA8F02960286894FAA4F1B1FA42
:1003A80081F1A14003FA01F120EA010194FAA4F0D5
:1003B8002960286897FAA7F1B1FA81F1A1408B402A
:1003C80020EA030397FAA7F12B60059206968DF8A9
:1003D8001C408DF81D408DF81E4005A800F018FA45
:1003E800CDF8149006968DF81C408DF81D408DF8B8
:1003F8001E4005A800F00CFACDF8148006968DF87A
:100408001C408DF81D408DF81E4005A800F000FA2C
:10041800059406968DF81C408DF81D408DF81E40F9
:1004280005A800F0F5F9059706968DF81C408DF89B
:100438001D408DF81E4005A800F0EAF9CDF820A06F
:1004480009940A960B960C960DEB0801284600F0C5
:10045800A7FA089409960C960DEB08014FF0904006
:1004680000F09EFA0EB0BDE8F08700BF0010024011
:10047800001000480000014030B591B000240994F4
:100488000A940B940C940D940E940F940394049472
:100498000594069407940894234D6B6943F48023CC
:1004A8006B616B6903F480230293029BC02303935F
:1004B800022304930323059301230693079304233C
:1004C800089303A9194800F06BFAEB6943F4001389
:1004D800EB61EB6903F400130193019BA5F5DE358D
:1004E8006B6843F000736B60EB6823F40043EB60C8
:1004F8002B6823F400232B602B6823F400332B6034
:1005080009940B4B0A930B940C940D940E940F942E
:1005180009A9284600F0DDFAEB6823F4FF6323F00D
:100528000603EB6011B030BD001002400004004823
:100538000E09002010B592B02822002108A800F06A
:100548007DFD002402940394049405940694079472
:10055800204B9A6942F480529A619A6902F4805257
:100568000192019A5A6942F400325A615B6903F4B4
:1005780000330093009BE023029302230393032399
:1005880004930523079302A94FF0904000F008FA5E
:1005980008944FF4827309934FF440730A930B94B1
:1005A8000C944FF400730D9308230E930F9410943A
:1005B80007231193084C08A9204600F0C2FA636883
:1005C80023F010036360636843F00803636012B0AC
:1005D80010BD00BF001002400030014008B50748B8
:1005E800074B036008234360022282600023C36034
:1005F80002618361036200F0E0FA08BD2800002070
:10060800005C004010B5354A136823F0070343F037
:10061800010313601368324B1A6842F480221A608F
:100628001A6842F480321A602D4B1B6813F4003F9D
:10063800FAD02B4A136843F001031360284B1B6858
:1006480013F0020FFAD0264B1A6822F0F80242F093
:1006580080021A605A6822F4741242F488125A60AE
:10066800DA6A22F00F02DA621A6842F080721A60BF
:100678001B4B1B6813F0007FFAD0194B5A6822F005
:10068800F0025A605A6822F4E06242F480625A60CA
:100698005A6822F460525A605A6822F0030242F003
:1006A80002025A600E4B5B6803F00C03082BF9D169
:1006B8000C4C204600F096F80B4A136843F00403EC
:1006C8001360204600F09EF8054B1A6B22F01002CA
:1006D8001A635A6842F480025A6010BD0020024032
:1006E80000100240006CDC0210E000E008B500F0E9
:1006F800DFFAFFF787FFFFF763FDFFF7BDFEFFF7A0
:1007080019FFFFF76BFF03E00133054A9342FBDD56
:10071800044A536983F4007353610023F5E700BF6B
:10072800BFD40100001000487047FEE7FEE7FEE76F
:10073800FEE770477047704708B500F0CBFA08BD70
:1007480000B583B00C4B9A6942F001029A619A692C
:1007580002F001020092009ADA6942F08052DA61EE
:10076800DB6903F080530193019B072000F088FBAD
:1007780003B05DF804FB00BF0010024010B588B05C
:100788000023039304930593069307930268134B7E
:100798009A4201D008B010BD114C636943F400338C
:1007A8006361636903F400330193019B4FF4C05301
:1007B800039302230493032306930E23079303A9A9
:1007C8004FF0904000F092FAE36943F40003E361CC
:1007D800E36903F400030293029BDBE7005C00403B
:1007E80000100240054BA3FB003080090138044B80
:1007F800586000229A6005221A607047D34D621033
:1008080010E000E0014B1860704700BF08000020AE
:100818000346027A002A00F0A98010B40268002A70
:1008280051D0417A012919D019B1022921D00120CA
:1008380009E05A49486820EA02024A601A680868CA
:1008480002430A6000209A7A002A3DD0022A25D065
:10085800032A2ED0012A16D0012035E04F49086816
:1008680020EA02020A601A68486802434A600020C7
:10087800E9E74A49086802430A601A684868024377
:100888004A600020DFE71C68444AD16821EA040175
:10089800D160196894682143916015E01C683F4A4B
:1008A800916821EA040191601968D4682143D160F4
:1008B8000AE01968394A9468214391601968D46834
:1008C8002143D16000E000205A68CAB1597A012951
:1008D80019D019B1022920D0012008E02F494C6A0B
:1008E80024EA02024A625A680C6A22430A629A7A25
:1008F80032B1022A25D0032A2ED0012A16D001208F
:100908005DF8044B704725490C6A24EA02020A6222
:100918005A684C6A22434A62E9E720490C6A224332
:100928000A625A684C6A22434A62E0E75C681B4ADA
:10093800D16A21EA0401D1625B68916A0B43936230
:10094800DEE75C68154A916A21EA040191625B68F6
:10095800D16A0B43D362D3E75968104A946A21439A
:1009680091625B68D16A0B43D362C9E700680B4A9E
:10097800116821EA000111601868516821EA000134
:1009880051605868116A21EA000111625968536A76
:1009980023EA010353620020704700BF00040140AE
:1009A800F0B40A6892FAA2F2B2FA82F218E00E697A
:1009B800C46893FAA3F5B5FA85F56D00032707FA1D
:1009C80005F524EA050493FAA3F5B5FA85F56D0053
:1009D80006FA05F52C43C4604C68022C36D0013267
:1009E8000B6833FA02F464D0012494402340F6D013
:1009F8004E68046893FAA3F5B5FA85F56D000327E8
:100A080007FA05F524EA050493FAA3F5B5FA85F57E
:100A18006D0006FA05F52C4304604C68013C012C76
:100A2800C5D88E68846893FAA3F5B5FA85F56D0084
:100A380007FA05F524EA050493FAA3F5B5FA85F54E
:100A48006D0006FA05F52C438460B0E793FAA3F429
:100A5800B4FA84F4072C15D84D69046A93FAA3F6FE
:100A6800B6FA86F6B6000F2707FA06F624EA060451
:100A780093FAA3F3B3FA83F39B0005FA03F3234332
:100A88000362ACE74C69456A1B0A93FAA3F6B6FA07
:100A980086F6B6000F2707FA06F625EA060593FA42
:100AA800A3F3B3FA83F39B0004FA03F32B434362E3
:100AB80095E74A68013A012A02D90020F0BC70473C
:100AC800C968426822EA030201FB03F31343436047
:100AD800F3E710B4036823F0010303608A68CC6865
:100AE800036823F4F85342EA0422134303604B6873
:100AF8000361036843F001030360836823F4004340
:100B080083600A698C69836823F4FF6323F0070311
:100B18002243134383600B691BB1836843F400438A
:100B280083600B68026822F44012134303604B6928
:100B3800426822F400421343436000205DF8044BEE
:100B480070470246036813F0400F30D110B40068B4
:100B580020F47F4020F0BF000B684C682343CC682A
:100B680023430C6923434C6923438C692343CC6991
:100B780023430C6A234303431360536823F47063CD
:100B880023F004038868CC8A2043034353600B6A2C
:100B9800B3F5005F07D00020D36923F40063D36165
:100BA8005DF8044B70478B8C13610020F4E701203B
:100BB800D36923F40063D361704700284FD010B580
:100BC800044690F8713323B1032384F8713300226B
:100BD80014E080F87033FFF7D1FDF5E7D100891AEA
:100BE8008B002344012183F8291083F82820002151
:100BF80083F82B1059639963D96301326068904276
:100C0800ECD8002211E0D100891A8B00234400217E
:100C180083F8CD1183F8CC2183F8CF11C3F8D8110C
:100C2800C3F8DC11C3F8E01101329042EBD8226816
:100C38000123A2F8403022680020A2F84000226870
:100C4800A2F844002268A2F8500022684FF43F41FD
:100C5800A2F8401084F8240084F8713310BD0120F4
:100C68007047000010B504460E4B18784FF47A739D
:100C7800B3FBF0F30C4A1068B0FBF3F000F046F950
:100C880068B90F2C01D901200AE0002221464FF053
:100C9800FF3000F007F9054B1C60002000E0012040
:100CA80010BD00BF00000020080000200400002044
:100CB80008B5074A136843F010031360032000F0D7
:100CC800DFF80020FFF7CEFFFFF73AFD002008BD50
:100CD80000200240034A1168034B1B780B44136041
:100CE800704700BFD003002000000020F0B482B09D
:100CF800002336E0042400E00024B4403C430235DD
:100D08005B4E46F825405B4C2568D44304EA05064B
:100D18004F6817F4803F01D042EA0506554D2E6012
:100D28006D6804EA05064F6817F4003F01D042EAEF
:100D38000506504D6E60AD6804EA05064F6817F465
:100D4800801F01D042EA05064A4DAE60ED682C408E
:100D58004E6816F4001F01D042EA0504454AD460E3
:100D680001330A6832FA03F47ED001249C40224001
:100D7800F6D04D68022D01D0122D10D1DE080836AC
:100D880050F826C003F00705AF000F25BD402CEA38
:100D9800050C0D69BD4045EA0C0540F8265006686B
:100DA8005F000325BD40ED4305EA060C4E6806F0DA
:100DB8000306BE4046EA0C0606604E6806F1FF3C94
:100DC800BCF1010F03D9112E01D0122E10D1866863
:100DD80005EA060CCE68BE4046EA0C068660466800
:100DE80026EA04044E68C6F300169E402643466071
:100DF800C46825408C68BC402C43C4604C6814F01F
:100E0800805FADD01C4CA56945F00105A561A469BA
:100E180004F001040194019C9D08AE1C144C54F884
:100E2800267003F00304A6000F24B44027EA040741
:100E3800B0F1904F3FF460AF104CA0420ED004F5D3
:100E48008064A0420CD004F58064A0420AD004F566
:100E58008064A0423FF44EAF05244EE701244CE7DE
:100E680002244AE7032448E702B0F0BC704700BFF9
:100E78000000014000040140001002400004004846
:100E8800074AD36823F4E0631B041B0C000200F438
:100E9800E060184340F0BF6040F40030D060704715
:100EA80000ED00E030B4174BDB68C3F30223C3F155
:100EB8000704042C28BF04241D1D062D18D9033B44
:100EC8004FF0FF3505FA04F421EA0401994005FAC8
:100ED80003F322EA0303194300280BDB0901C9B213
:100EE80000F1604000F5614080F8001330BC7047A5
:100EF8000023E5E700F00F000901C9B2024B1954BD
:100F0800F4E700BF00ED00E014ED00E00138B0F1B7
:100F1800807F0AD2064B5860064AF02182F82310D7
:100F28000020986007221A6070470120704700BFB0
:100F380010E000E000ED00E01549D1F8883043F4F6
:100F48007003C1F88830134B1A6842F001021A6026
:100F58005868114A02405A601A6822F0847222F4D2
:100F680080321A601A6822F480221A605A6822F4C1
:100F7800FE025A60DA6A22F00F02DA62186B074A38
:100F880002401A6300229A604FF000638B6070473A
:100F980000ED00E0001002400CC07FF8CCFC00FF20
:100FA800DFF834D0002103E00C4B5B584350043188
:100FB8000B480C4B42189A42F6D30B4A02E0002326
:100FC80042F8043B094B9A42F9D3FFF7B5FF00F00A
:100FD80011F8FFF78BFBFEE700A000207410000853
:100FE800000000200C0000200C000020D40300208A
:100FF800FEE7000070B50D4E0D4CA41BA410002593
:10100800A54209D10B4E0C4C00F020F8A41BA410EB
:101018000025A54205D170BD56F825309847013501
:10102800EEE756F8253098470135F2E76C100008CE
:101038006C1000086C100008701000080244034689
:10104800934200D1704703F8011BF9E7F8B500BFD8
:10105800F8BC08BC9E467047F8B500BFF8BC08BC91
:041068009E467047E9
:04106C00AD010008CA
:0410700089010008EA
:0C107400010000001000000000127A00D3
:0400000508000FA937
:00000001FF
