:020000040800F2
:1000000000C00020C9F1000885F3000891F3000842
:1000100097F300089DF30008A3F300080000000018
:10002000000000000000000000000000A9F300082C
:10003000B5F3000800000000C1F30008CDF300088C
:100040000DF200080DF200080DF200080DF2000894
:100050000DF200080DF200080DF200080DF2000884
:100060000DF200080DF200080DF200080DF2000874
:100070000DF200080DF200080DF200080DF2000864
:100080000DF200080DF200080DF200080DF2000854
:100090000DF200080DF200080DF200080DF2000844
:1000A0000DF200080DF200080DF200080DF2000834
:1000B0000DF200080DF20008000000000DF200082B
:1000C0000DF2000800000000000000000DF2000822
:1000D000000000000DF200080DF200080000000012
:1000E0000DF200080DF200080DF2000800000000FB
:1000F0000000000000000000000000000000000000
:0C01000000000000000000005FF808F1A3
:1001400010B5054C237833B9044B13B10448AFF311
:1001500000800123237010BDE00800200000000093
:10016000AC17010808B5034B1BB103490348AFF3B3
:10017000008008BD00000000E4080020AC17010862
:10018000F0B44C1E05464E2C3FD8DFE804F03B3B54
:100190003B3B3E3E3E3E28283B282828282828284E
:1001A00028282828283E29292929292929293B289E
:1001B000282828283E28293C3B3E3B29293C3E3E16
:1001C0002828283B3B3B3B3B283B3B283B3E3E28EB
:1001D00028283E3E3E2828283B293B292900A2B159
:1001E000D5E90540844210DA4FF0000C2F69260152
:1001F000B8190134C0F804C06C61B955C0E90223D4
:10020000F0BC70470AB1002BEAD10020F0BC704767
:1002100010B4C3680A461C78522C0DD04F2C02D063
:10022000084610BC70472021046B0334046301337B
:10023000C36010BC0023A3E7046B1F2102340463D6
:10024000F5E700BF002A4ED070B505460E461446AD
:100250002378013B4E2B2CD8DFE803F037373740AB
:100260002B2B282837373737373737373737373754
:100270003737372B37373737373737373737303028
:1002800037372B373737372C373737372B28373730
:1002900037373737373737373737372B2B372C2C1C
:1002A0002C2C2B373737373737373700E468002C9B
:1002B000CED170BDA468002CCAD1FAE7A268137829
:1002C000052B03D1336801333360A26831462846D9
:1002D000FFF7B8FFE468002CBAD1EAE72B680133D6
:1002E0002B60A268F2E7704792B32DE9F0410D460A
:1002F0008E1804460027D0F80011013E013D16E09B
:10030000D4F80831D4F80C2184F8FF7020469847BF
:1003100001210022D4F82431B5420B44C4F8243121
:10032000C4F8001104F8028084F804810ED0FF297B
:1003300015F8018FE4D00A46B54201F10101C4F875
:10034000001104F8028084F80481F0D1BDE8F08146
:10035000704700BFA0F11C03042B07D94C2805D01F
:100360004E3801288CBF00200120704701207047C3
:1003700070B4026811786E2918D0A1F13003092BEE
:100380001ED800260023013203EB8303026001EB39
:1003900043041178A4F13003A1F13005092DF2D9FD
:1003A0000EB1C4F13003184670BC7047531C036093
:1003B0005178A1F13002092A02D81A460126E1E754
:1003C000002370BC18467047D0E90532934270B5DF
:1003D0000EDA0026412501691A018C180133666086
:1003E0000C3083608D54FFF7C3FFA060204670BDC2
:1003F0000024204670BD00BF10B5C36804461A78BB
:100400005F2A0DD06E2A0DD00C30FFF7B1FF0130FE
:1004100008D4E3681A785F2A04D10133E36010BD81
:100420000020FAE74FF0FF3010BD00BFF8B5C368F9
:100430001A78542A19D10133C3600446FFF7DCFF50
:10044000051E12DBD4E90531A26A8B4202F10102DA
:10045000A2620ADA0027052621691A0188180133E9
:10046000476063618E548560F8BD0020F8BD00BF11
:100470002DE9F04104460C30FFF77AFF071E4BDDF3
:10048000E56863685B1B9F4244DCA268EB19520776
:10049000E36004D5EA5D242A04BF0133E360092F39
:1004A000D4E9056810DCB04534DD00232169320150
:1004B000881801364360666165B343608B54C0E9B8
:1004C0000257E062BDE8F08108221549284607F08E
:1004D0002FF90028E7D12B7A2E2B03D05F2B01D0E8
:1004E000242BE0D16B7A4E2BDDD1236BB04503F189
:1004F0001603A3EB070727630CDD002115252269EE
:10050000330101366661074ED0184160D154C0E90D
:100510000265D6E70020D4E70020BDE8F08100BFE7
:10052000FC2401080825010870B5C36804461A7840
:100530000D46422AC66A0FD10133E3602046FFF719
:1005400097FF2A4603464B212046FFF719FEE36832
:1005500005461A78422AEFD0E662284670BD00BFF1
:100560002DE9F8430546C0680378532B31D1431C6D
:10057000EB604278A2B3831CEB6042785F2A00F004
:100580008980A2F13003D8B2092825D800210EE0D5
:10059000303B99421DD8E9680A78481C22B1E860CE
:1005A0000A785F2A00F082801946A2F13003DCB29B
:1005B000092C01EBC103A2F1410002EB8303E7D94F
:1005C000192806D801EBC10302EB8303373B99429C
:1005D000E1D90020BDE8F883A2F141001928D5D95E
:1005E000AB6803F00803002B14BF0124002401D1E1
:1005F00000295DD17421354B914203F1C40005D02F
:100600001C338342E5D219789142F9D15869D5E972
:100610000521A8B18A4257DA4FF000094FF01808B7
:10062000D5F810C0D3F818E017010CEB070601321B
:10063000C6F804906A610CF80780C6E9020EEE6203
:10064000002C3CD1D3E901642B6B914223442B63F2
:1006500038DD4FF0000C182729691301C818013242
:10066000C0F804C06A61CF54C0E90264EB681B782B
:10067000422BAFD101462846FFF756FF0028A8D0ED
:10068000D5E908329342A5DAE9695A1C41F82300FA
:100690002A629FE700232A6A9A429AD9AA6AE969DC
:1006A0000132AA6251F82300BDE8F8830133F2E772
:1006B000EB681B78433B012B98BF0C469AE7D3E9C4
:1006C0000364C1E70020D1E70026B8E70419010858
:1006D000C3681A785F2A01D00120704710B55A1CF0
:1006E000044640F80C2F5A785F2A04D0FFF740FEEA
:1006F000C043C00F10BD0233E360FFF739FE00288E
:1007000005DB092807DDE3681A785F2A01D000209D
:1007100010BD0133E360012010BD00BF70B103784C
:100720002F2B0FD1002904DC09E003782F2B09D1EE
:1007300031B1C06801390028F7D17047704701D145
:100740008068704700207047D0F8103133B10968D5
:100750005B680029DB6804DB1846DFE70122C0F88C
:1007600018211846704700BF002942D038B5054609
:100770000C4623784B2B27D8DFE803F02E262626BD
:1007800026302E2B2B2626262626262626262626ED
:10079000262626262E2626262626262626262626F1
:1007A0002626262E262626262E262626262E2B26CC
:1007B0002626262626262626262626262E2E2626C9
:1007C000262E2E2E26262E2EA1682846FFF7CCFF99
:1007D00018B9E468002CCCD1002038BD04F1080120
:1007E0002846FFF7B1FF0028F6D003782F2BF3D16E
:1007F00038BD0020704700BF2DE9F0411446526813
:100800004B1CA5681344AB4282B00E468046E76895
:1008100014D817B102B0BDE8F081D4E90003324624
:100820004146184406F0B6FFD4E9003233449F54E1
:1008300063681E44666002B0BDE8F081002FE9D114
:100840001DB9022B4FF0020502D96D00AB42FCD856
:100850002946206807F036F928B1E7682060A560CE
:10086000002FD7D1D9E70190206806F051FC012272
:10087000019BC4E90033C4E90232CBE738B5044632
:1008800029B9C3681A7832B15A1CC260197868292C
:1008900012D0762901D0002038BD04F10C0528467D
:1008A000FFF766FDE3681A785F2AF4D10133E3604D
:1008B0002846FFF75DFD03E004F10C00FFF758FD4B
:1008C000E3681A785F2AE6D101200344E36038BD6B
:1008D0002DE9F04188B00A4604461B4901A807F0FB
:1008E000DFFB01A807F0CCFD58B301AD0027D4F819
:1008F00000112E1816E0D4F80831D4F80C2184F831
:10090000FF702046984701210022D4F82431AE42DE
:100910000B44C4F82431C4F8001104F8028084F8B0
:1009200004810ED0FF2915F8018BE4D00A46AE42AF
:1009300001F10101C4F8001104F8028084F8048177
:10094000F0D108B0BDE8F0812025010800222DE992
:10095000F04FC36883B01D7804468D42019200F0C9
:1009600099818846DFF8BC9401AF0125666B656309
:100970001A784C2A5CD0542A66D0732A45D0662A4D
:100980001CD15A78702A00F08780204601F062FA64
:100990000546002800F08C810378312B00F0988008
:1009A000322B56D0332B71D1E3681A785F2A00F0CE
:1009B000DA81204600F038FA0346C1E0A2F13001A6
:1009C000092900F2E780204601F0EEFB05460028E9
:1009D00000F06E81E3681A78492A00F0B8806663F7
:1009E0002A4600232E212046FFF7CAFB386030B389
:1009F000E36800F10C071A784245B6D10133019D36
:100A0000E360284603B0BDE8F08F5A78722A00F000
:100A1000AB80702AB9D10233E360204600F004FABB
:100A2000002302464A212046FFF7AAFB054603E0C1
:100A3000204602F003F805466663002DD0D100255C
:100A4000284603B0BDE8F08F2046FFF7EFFC0546CF
:100A5000F2E78368032B19D801A252F823F000BFF4
:100A6000F30B0008B30900088D0A00088D0A00087E
:100A7000742A8AD15B786C2B87D1204600F0F8FD70
:100A8000E36805465A78002A40F02381002528466D
:100A9000666303B0BDE8F08F9A1CE2609A78542A2E
:100AA00040F0828000200333E360D4E905329342B2
:100AB000ECDA4FF0000E4FF0060C21691A018D1888
:100AC0000133C5F804E0636101F802C0A86086E75D
:100AD000D0F808B0236BDBF80820DBF800A0023A5E
:100AE000134423635046494607F04EFB002800F0AC
:100AF000E480DBF80CB0BBF1030FC7D8DFE81BF0D4
:100B000079000400F70081009AF80030702B65D05E
:100B10006D2B63D04FF0000B5046BD4907F034FBFE
:100B2000002840F0C080204600F090FB0346BBF157
:100B3000000F05D01A4638212046FFF721FB034657
:100B40002A4636212046FFF71BFB054674E7013392
:100B5000E360204600F07AFB2A4603460421204643
:100B6000FFF70EFB054667E70233E360204600F01F
:100B70007FFD8246204601F017FBE36883461A7822
:100B8000492A1ED00346294652462046FFF7F8FA66
:100B9000054651E76F2A40F094805A786E2A7FF418
:100BA000F4AE0233E3600EE72046FFF725FC6FF05A
:100BB000004398423FF46AAF431C3FF467AF0130F3
:100BC00073E70133E360204600F040FB5A460346DA
:100BD00004212046FFF7D4FA0346D4E79AF801200F
:100BE0009A4297D1E3681A785F2A95D10133E3607E
:100BF00090E72A46002335212046FFF7C1FA054633
:100C00001AE7BAF1000F3FF441AF8249504607F0AE
:100C1000BBFA002800F0C7809AF80030662B00F07D
:100C2000ED806E2B7FF432AF9AF80130772B02D033
:100C3000612B7FF42BAF5F212046FFF787FE8246B2
:100C4000204600F015FDE36883461A78452A00F037
:100C50008680702A00F0C680692A7FF417AF5B781F
:100C60006C2B7FF413AF204600F0DEF803465A46A3
:100C70003B212046FFF784FA524603463A2120469C
:100C8000FFF77EFA2A46034639212046FFF778FA15
:100C90000546D1E60133C3602E21134603B0BDE8FB
:100CA000F04FFFF76DBA204600F0BEF803463EE76E
:100CB0002846666303B0BDE8F08F204600F0D8FCFC
:100CC0003DE7692A7FF4D4AE5A786C2A7FF45DAE92
:100CD00000250233E36045212046FFF737FE2A4610
:100CE000034630212046FFF74BFA0546A4E6BAF149
:100CF000000F3FF4CBAEAB681B685A78632A3AD03A
:100D00009AF80030662B49D1204601F0A3F88346BB
:100D10004149504607F038FA002839D03F4950463B
:100D200007F032FA28B150463D4907F02DFA002865
:100D300068D1204601F038FAE36882461A78492AD9
:100D400043D053465A4638212046FFF719FA2A461F
:100D5000034637212046FFF713FA05466CE60133B8
:100D6000E360002383E70133E36045212046FFF77A
:100D7000EDFD0346E4E61B78A3F16302012A02D9E4
:100D8000723B012BBCD8204600F072FC8346BFE7C3
:100D900045212046FFF7DAFD8246D2E7204600F0E3
:100DA00043F88346B4E7204600F03EF882462046EA
:100DB00000F03AF88346204600F036F80346002853
:100DC0007FF455AF666305461BE60133E3602046BA
:100DD00000F03CFA5246034604212046FFF7D0F9C2
:100DE0008246AEE75A78692A7FF450AE0233E36058
:100DF00045212046FFF7AAFD034638E7204601F0CB
:100E000029F8D3E7204600F00FF8824699E700BFA3
:100E10002425010834250108282501082C2501086E
:100E200030250108402A0108C1680B784C2B67D097
:100E3000542B67D0732B2DE9F04104461CD0662B50
:100E40003DD14B78702B1DD18B1CC3608B78542BFC
:100E500040F09A800331C1600020D4E9053293420A
:100E60004ADA0027062621691A018D1801336F60BE
:100E700063618E54A8602FE04B78722B6ED0702B7C
:100E800000F06081204600F0E5FF0546A0B303783E
:100E9000312B39D0322B00F02781332B2CD1E36852
:100EA0001A785F2A00F076812046FFF7BDFF0346DF
:100EB0002A462046BDE8F0413621FFF761B9A3F18B
:100EC0003002092A41D8204601F06EF9054698B152
:100ED000E3681A78492A2BD02846BDE8F081742BA4
:100EE000D0D14B786C2BCDD100F0C2FBE168054628
:100EF0004B78002B40F0908100252846BDE8F0811A
:100F000001F09CBDFFF792BA8768236BBA683E6810
:100F1000023A134423633046C64907F035F90028E6
:100F20005BD0FF68032FE7D8DFE807F05C38A764E1
:100F30000133E360204600F089F92A460346042184
:100F40002046BDE8F041FFF71BB96F2B40F05C81F4
:100F50004B786E2B96D10231C160B4E70231C1608B
:100F600000F086FB0546204601F01EF9E3680646C0
:100F70001978492900F0D98003462A462046BDE861
:100F8000F0410121FFF7FCB8FFF736FAC34333F015
:100F9000004318BF01307FF460AFADE7002E83D06F
:100FA0003378702B00F0B0806D2B00F0AD800027FF
:100FB0003046A14907F0E8F8002840F0B18020460B
:100FC00000F044F90346002F3FF472AF1A4638216F
:100FD0002046FFF7D5F803466AE7204600F048FBB5
:100FE000034665E72A462046BDE8F0410023352147
:100FF000FFF7C6B89149304607F0C6F8002800F060
:10100000D1803378662B00F0F6806E2B7FF474AFBE
:101010007378772B02D0612B7FF46EAF5F2120466F
:10102000FFF794FC0646204600F022FBE3680746E3
:101030001978452900F0AA80702900F0D08069292C
:101040007FF45AAF5B786C2B7FF456AF2046FFF7E6
:10105000EBFE03463A463B212046FFF791F8324625
:1010600003463A212046FFF78BF82A4603463921EA
:101070002046BDE8F041FFF783B8002E3FF43CAFB7
:10108000AB681B685A78632A68D03378662B78D1AE
:10109000204600F0DFFE07466949304607F074F845
:1010A000002868D06749304607F06EF830B1304606
:1010B000654907F069F8002840F0A180204601F05A
:1010C00073F8E36806461A78492A7BD033463A46D5
:1010D00038212046FFF754F82A4603463721204698
:1010E000BDE8F041FFF74CB88368032B3FF604AF2F
:1010F00001A252F823F000BFE50F0008A90E000876
:10110000F90E0008F90E000872789A427FF44FAF8A
:10111000E3681A785F2A7FF44BAF0133E36046E758
:101120002046FFF781FE03464DE70133E36020468A
:1011300000F08CF83246034604212046FFF720F8E1
:1011400003461AE70231E160FFF76EFE0023024614
:101150004A212046BDE8F041FFF712B81B78A3F101
:101160006302012A02D9723B012B8ED8204600F07F
:101170007FFA074690E745212046FFF7E7FB064642
:10118000A4E72046FFF750FE074685E70133E360FA
:1011900000235FE70133E36045212046FFF7D6FBDC
:1011A000034685E62046FFF73FFE06462046FFF74A
:1011B0003BFE07462046FFF737FE034600287FF434
:1011C00049AF99E60133E360204600F03FF832462C
:1011D000034604212046FEF7D3FF064676E75A78F9
:1011E000692A7FF489AE0233E36045212046FFF788
:1011F000ADFB03462EE7204600F02CFED5E7204647
:10120000FFF712FE064661E7692B7FF468AE4B7864
:101210006C2B7FF437AE00250231E160204645217A
:10122000FFF794FB2A46034630212046BDE8F041F3
:10123000FEF7A6BF402A010824250108342501082D
:10124000282501082C250108302501082DE9F04149
:10125000C26882B013780446452BC76A47D0002184
:10126000012602AD45F8041D493B0F2B37D8DFE8B6
:1012700003F03232362E3636363636363636363697
:1012800036080132D4F83480E26020466663FFF706
:10129000CBFDE368C4F834801A780133452A22D1A3
:1012A000E36000B3024600232F212046FEF768FFCB
:1012B000286000F10C05B0B1E2681378452BD3D15A
:1012C00001980132E260E76202B0BDE8F081204699
:1012D00001F0B4FBE5E7204600F014F8E1E7204612
:1012E00000F0C6F9DDE7002002B0BDE8F081002380
:1012F0000132C2602F211A4602B0BDE8F041FEF76C
:101300003FBF00BFC3681A78493A012A02D80133A7
:10131000C3609BE7002070472DE9F043C26883B0AB
:10132000137804464E3B0C2B46D8DFE803F06745A4
:101330004545450E450745454545A40000F034FFA9
:101340000546284603B0BDE8F0835378742B40F07F
:10135000D780D0E9053102328B42C26080F227810A
:101360000020032621691A0101336361BD4B8D18EA
:1013700068608854C5E90236204600F015FF2A4609
:10138000034601212046FEF7FBFE236BE268033390
:10139000236313780546492BD3D1002800F0BA8087
:1013A000D4E90832934280F2B580E1695A1C41F8D1
:1013B00023002262204614E000F0F6FEE3680546B2
:1013C0001B78492BBDD1002800F0A480D4E9083255
:1013D000934280F29F80E1695A1C41F82300204625
:1013E0002262FFF78FFF2A46034604212046FEF7BC
:1013F000C7FE0546284603B0BDE8F0830132C2604F
:1014000001A9012200F0DEFD8046002800F0828064
:1014100000212046FEF7FCFE00278146E268924E3E
:101420001578002D00F0B380442D00F09680A5F1D2
:101430003003DBB21C2B6FD9A5F16103DBB2192B92
:101440006ED9552D00F0A180532D00F0B280492DAA
:1014500000F0A480542D00F0E680452D00F0E980D6
:101460004D2D40F09480002F00F09180531CE360DC
:1014700055781A46D5E70132C260002101F030F8F4
:10148000E36806461A78452A44D15A1CE2605A7825
:10149000732A00F0B080642A00F095802046FFF7A0
:1014A0003BFF054608B30378452B1ED0472B1CD0C5
:1014B0004FF0FF372046FFF70BF958B37B1C14D0D1
:1014C000D4E90532934280F294804FF0000E4FF041
:1014D000460C2069190142180133C2F804E0636127
:1014E00000F801C0C2E9025715462B463246204695
:1014F0000221FEF745FE0546284603B0BDE8F0830D
:101500000021FFF72DF8E36805461B78492B7FF48F
:1015100018AF4FE7002514E726FA03F3D9078BD558
:10152000204600F041FE5FB3012103463A462046C3
:10153000FEF726FE0746E268532D13781ED0452B92
:101540001AD027B3D4E908318B4220DAE169581C5C
:1015500041F823702062157863E75378204603F042
:10156000DF03542B0ED000F01FFE002FDCD1E26809
:1015700007461378452BE4D11D4658E71D4650E732
:101580000746D8E700F074F8EFE72046EBE70025C0
:101590002846C8F8005003B0BDE8F083002FF6D00D
:1015A0000132E2602046FFF751FE0421BDE700252D
:1015B000E2E601212046FEF7D3FF002FB4D1E26816
:1015C000074615782DE70233E3602046FEF714FF47
:1015D000071E9FDB2046FFF79FFE054600283FF4CD
:1015E0006FAF0378452B3FF469AF472B3FF466AFED
:1015F00060E7002579E70233E3602046FFF768F8EB
:10160000002887D0D4E90532934210DA00200E2555
:1016100021691A01154F013363618B185860885492
:10162000C3E9027562E72046FEF700FF9DE700234D
:101630005CE7C8F80070002F3FF46CAFB9F1000F01
:1016400004D0019BCDF80490C9F808301378452BDD
:101650007FF460AF019D01322846E26003B0BDE82F
:10166000F08300BF48250108FF0308103825010852
:101670002DE9F043C26883B013780446722B5FD023
:10168000562B5DD04B2B5BD0442B51D0A3F13001B6
:101690004A2900F29E80DFE811F0110111011101C9
:1016A00011011101110111011101110111019C0020
:1016B0009C009C009C009C009C009C001B029C00C9
:1016C0003B019C009C00350149019C009C009C0052
:1016D0009C009C0003021101570165019C007301ED
:1016E0008101A501CC019C009C009C009C00110183
:1016F0009C009C009C009C009C009C00E401E40178
:10170000E401E401E401E401E401E401E401E401B1
:101710009C00E401E401E401E4019C009C009C00C5
:10172000E401E4012701E401E401E401E401E4014E
:10173000537803F0DF014F2902D0773B012B4DD8BE
:10174000002201A9204600F03DFC0546002840D0BB
:10175000E36820461B78462B19D100F005FD286070
:10176000002836D00378019A1F3B012B13D9002A99
:101770002FD0D4E908318B422BDAE069591C40F8AC
:101780002320019D2162284603B0BDE8F083FFF7C6
:101790006FFF2860E4E7836882602A6801922B600B
:1017A000019AE4E70123456B4363FFF73DFB656363
:1017B0000246002342212046FEF7E2FC0546019046
:1017C00038B1E3681A7822B15A1CE2601B78452BC5
:1017D0007BD00025284603B0BDE8F083531CC360CE
:1017E0005378002BF5D0931CC3605378463B302BC5
:1017F000EFD801A151F823F0A71C0008D317000867
:10180000D3170008D3170008D3170008D317000810
:10181000D3170008D3170008D3170008D317000800
:10182000D3170008D3170008D3170008D3170008F0
:10183000A5170008D3170008D3170008D31700080E
:10184000D3170008D3170008D3170008D3170008D0
:10185000D3170008D3170008D3170008D3170008C0
:10186000D31700088B1C0008D3170008671C00085A
:101870003F1C0008171C0008EF1B0008D3170008C6
:10188000C71B0008591D0008D3170008D31700080C
:10189000D3170008D31700080F1D0008D31700083E
:1018A000B11B0008D3170008D3170008891B0008D4
:1018B000A5170008D31700084F1B00082046FFF7A4
:1018C0002BFD05460190002D83D0D4E908329342C8
:1018D000BFF67FAFE1695A1C41F82350019D226297
:1018E000284603B0BDE8F0830132E2602046FEF7EF
:1018F000BFFD0023024628212046FEF741FC054695
:101900000190E0E7204600F02FFC05460190DAE761
:101910000132E2602046FFF7ABFE0023024625219C
:101920002046FEF72DFC05460190CCE70132E2602F
:101930002046FFF79DFE0023024626212046FEF7A3
:101940001FFC05460190BEE70132E2602046FFF72A
:101950008FFE0023024624212046FEF711FC054697
:101960000190B0E70132E2602046FFF781FE0023DC
:10197000024622212046FEF703FC05460190A2E71D
:101980000132E2602046FFF773FE00230246232166
:101990002046FEF7F5FB0546019094E75378A3F146
:1019A0003002092A05D95F2B03D0413B192B00F2E5
:1019B000078200212046FEF7D3FDE36801901A78E4
:1019C0000546492A7FF4DFAE0133E3602046FFF786
:1019D0003DFC03462A4604212046FEF7D1FB05467E
:1019E000019070E72046FEF721FDE668019033780C
:1019F0000546492B7FF467AFA36B002B40F0ED81C8
:101A000000283FF4E6AED4E908218A42BFF6E1AEF1
:101A1000E069511C40F8225021623178019D49391A
:101A20000129D7D80136E6602046FFF70FFC0346B0
:101A3000D0E70132E2602046FEF71AFDE36801902C
:101A40001A780546492A00F0A0812046FFF710FECB
:101A5000019B024621212046FEF792FB054601909C
:101A600031E7613BB34DD4E9051003EB83038142B9
:101A700005EB830380F2838100204FF0270C276958
:101A80000E01BD19D3F804E06860206B013201310A
:101A90007044616107F806C0AB60E260206372E6E3
:101AA0000132E2602046FFF7E3FD054600283FF4DF
:101AB00090AE2046FFF7DCFD034600283FF489AED8
:101AC0002A462B212046FEF75BFB05460190FAE6ED
:101AD000551CE56053785F2B00F05581303B092B96
:101AE00000F26081284600E00846411CE16043782E
:101AF000303B092BF8D9D4E905329342A1EB050715
:101B0000BFF667AE0022D4F810E04FEA031C0EEBDC
:101B10000C06013372606361002F3FF45AAE7260AD
:101B20000EF80C20C6E902570D4643785F2B7FF470
:101B300050AE0135E5602046FFF79AFD3246034678
:101B40002A212046FEF71CFB05460190BBE6937850
:101B50005F2B00F07381FEF737FC0546002D3FF444
:101B600038AEE3681A785F2A7FF433AE0133E3605E
:101B70002046FFF77DFD2A4603462D212046FEF72D
:101B8000FFFA054601909EE6D0E90532934280F2C5
:101B9000F6800027272600691901226B01334518BA
:101BA0006F606361644B08324654AB602263EAE5C0
:101BB000FFF75EFD002302464A212046FEF7E0FAC9
:101BC000054601907FE6D0E90532934280F2D78046
:101BD0000027272600691901226B013345186F6021
:101BE0006361564B04324654AB602263CBE5D0E9C7
:101BF0000532934280F2C38000272726006919012D
:101C0000226B013345186F6063614D4B09324654B6
:101C1000AB602263B7E5D0E90532934280F2AF8032
:101C20000027272600691901226B013345186F60D0
:101C30006361444B0A324654AB602263A3E5D0E9AA
:101C40000532934280F29B80002727260069190104
:101C5000226B013345186F6063613B4B0932465478
:101C6000AB6022638FE5D0E905329342BFF6B1AD98
:101C700000200E261A01013363612169334B8D1850
:101C800068608854C5E902367DE5D0E905329342A3
:101C9000BFF69FAD042603FA06F20133636100200C
:101CA00021692B4BEBE7D0E905318B4280F2AE8006
:101CB00000272C2605691801291801334F6001916E
:101CC00063612E549378303BDBB2092B94BF012320
:101CD0003B468B8140F2AD802046019DFFF7C8FC5A
:101CE000019BA8609B68002B3FF473AD04F10C00CE
:101CF000FEF73EFBE268137813B1531CE3601378E0
:101D0000A3F173025342019D5341EB813BE5D0E9BE
:101D10000532934233DA0027272600691901226B26
:101D2000013345186F6063610A4B11324654AB6052
:101D3000226328E5C8190108201C01080C1C0108B1
:101D4000D01B0108F81B0108E41B010854250108F9
:101D50004C250108481C0108D0E9053293420EDAEF
:101D60000027272600691901226B013345186F608F
:101D70006361374B08324654AB60226303E50023AE
:101D800001939B68FFDE0026D3E60133E360204623
:101D9000FFF75CFA2A46034604212046FEF7F0F9D5
:101DA000019052E60123656B20466363FFF73CF820
:101DB0006563064600283FF40CADE5682B78B5E670
:101DC0002046FFF7A9FA0546019000283FF401AD2F
:101DD0000378182B7FF479ADD5E4731CE3602046BB
:101DE000D4F81490D4F82080A76A256BFFF72EFA58
:101DF000E26803461278492A0BD02563E660C4F8EE
:101E00001490C4F82080A762019D5CE500231B703C
:101E1000FFDE019900293FF4DCACD4E908208242BE
:101E2000BFF6D7ACE069551C40F82210019A256234
:101E3000D1E504F10C00FEF79BFA4DE701230332D4
:101E4000466BC2604363FEF7EFFF6663054685E6B7
:101E5000341C0108F8B5C36886461F7837B35A1C8E
:101E6000C2605A781F78002A4AD09A1CC260762F26
:101E7000044693F801C045D1ACF13005EBB2092B13
:101E800015D8FEF7F5FAD4E905318B42024621DA7E
:101E90000027266919017018013347606361CAB1D0
:101EA000322347607354C0E90252F8BDBC46432058
:101EB0000022224D831A03EBD37302EB6303190153
:101EC0006C5829442678BE4206D08CBF18465A1C4E
:101ED0008242EFD10020F8BD64786445F5D1DEE997
:101EE00005329342F6DA00263125DEF810401A0159
:101EF000A01801334660CEF81430A5548160F8BDB7
:101F00009446D4E7632FD2D1BCF1760FCFD1D0E97C
:101F10000D35B3FA83F35B098363FFF7A9FBA36B6A
:101F200002462BB933212046FEF72AF9A563F8BDF6
:101F3000002334212046FEF723F9F7E75C1C010853
:101F4000002330B5C26883B001931378002B36D0DC
:101F5000452B34D02E2B32D0044601AD16E04F2B4A
:101F600016D02046FFF784FB48B3024600232E21FB
:101F70002046FEF705F9286008B3E26800F10C0579
:101F8000137843B1452B06D02E2B04D0522BE6D12B
:101F90005378452BE5D1019888B1C3680BB103B0E4
:101FA00030BD826811782729F9D19268117C0929FE
:101FB000F5D15168226B521A22638360EFE700204B
:101FC00003B030BD2DE9F04F8946C168131E83B0C0
:101FD000019304460B7815BF4FF01E084FF01B0805
:101FE0001D271A2714BF1C2619264D464FF0010A3B
:101FF0001CE0562B3FD04B2B43D04B78002B35D0D9
:102000008B1CE3604B78782B41D06F2B45D100239C
:102010004E21226B0932226300222046FEF7B0F8DF
:10202000286018B3E16800F108050B78722B0DD019
:10203000562B0BD04B2B09D0442B45D14A7802F0BC
:10204000DF004F2802D0773A012A3DD84A1C722B74
:10205000E260CED1236B3146093323630022002393
:102060002046FEF78DF828600028DBD100252846A1
:1020700003B0BDE8F08F236B394609332363002397
:10208000CAE7236B4146063323630023C4E7226B70
:102090000023113222634C21BEE74F2B31D1D4E90A
:1020A0000C3B0933C4E90C3A2046FEF7BDFEC4F8E8
:1020B00034B003460028D9D0E26811784529D5D13B
:1020C0000132E2604E21A7E7019A002ACFD1462BC8
:1020D000CDD14D45CBD01D241E201C2108E01B2A4C
:1020E0000DD0192A00D1197003F108094D45BED051
:1020F000D9F800301A781A2AF1D11C70F4E7187058
:10210000F2E7772BB2D1236B204606332363FFF728
:1021100017FF03460028A9D0E26811784529A5D108
:1021200001324F21E26077E770B5C36804461A7840
:102130004A2A13D081B12046FFF79AFA054680B1AA
:102140002046FFF7FDFE60B103462A462046BDE863
:1021500070402921FEF714B80D46F1E70133C36042
:10216000E9E7002070BD00BFC3681A78462A18D17D
:1021700010B55A1CC2605A780121592A04BF023393
:10218000C3600446FFF7D0FF01462046FEF740F843
:10219000E3681A78452A02D10133E36010BD0020BC
:1021A00010BD0020704700BF2DE9F041C168044612
:1021B0000B78A3F13002092A3CD9A3F16102192A54
:1021C00022D9A3F14302012A69D94C2B56D0552BB1
:1021D0005FD14B786C2B00F0E580742B59D14B1CF0
:1021E000C3604B78742B58D10231C160FEF704F9FB
:1021F0000028C0F25581D4E905329342E768C0F265
:10220000F3803B78002510E06F2B04D14B786E2BC8
:1022100004BF0231C1602046FFF71CFE054610B125
:102220000378312B13D0E3681B78422B09D0284662
:10223000BDE8F081FEF71CF9E36805461B78422BE8
:10224000F5D129462046BDE8F041FEF76DB9826818
:10225000236B916807330B441068A049236305F092
:1022600093FF0028DFD12046FEF702F92A460346F5
:1022700036212046FDF784FF0546D4E70131C160D1
:10228000FEF7F6F8054620B12046FEF721FA0028B1
:10229000C9D100252846BDE8F0810025C5E7C26AFE
:1022A00032B11078E0B9236BD068034423630B7814
:1022B000432B18D0442BF0D14B78303B052BE8D87A
:1022C00001A050F823F000BF3923000803230008C1
:1022D0004B23000893220008452300083F230008F1
:1022E0001828E5D1DFE74B78492B00F0B080313B6F
:1022F000042BCED8DFE813F0ED0051004C0047006E
:102300002C004FF0020CD4E905308D1C8342E560AF
:1023100080F2D080002726691801351801336F60DC
:102320006361002A00F0CF8008236F60335485F882
:1023300008C0EA608B7878E74FF0010CE3E74FF0D4
:10234000050CE0E74FF0040CDDE74FF0030CDAE793
:102350004FF005080231E160D4E90530834280F294
:10236000AC80002726691801351801336F6063615E
:10237000002A00F0AB8007236F60335485F8088093
:10238000EA600B7851E70231E1604FF00408E3E7BF
:102390000231E1604FF00308DEE70231E1604FF007
:1023A0000208D9E74B1CC3604B786C2B7FF475AFE8
:1023B0000231C160FFF7C4FD0646002870D0E26814
:1023C0001378452B7FF469AF0132E2602046FEF7B7
:1023D00013F8B0F1000E63DBD4E905329342E068F4
:1023E0001BDB0378002520E74FF0000C4FF0470E71
:1023F0002669190175180133226AC5F804C06361A2
:10240000636A06F801E09A42A8604DDAE169531C5C
:1024100041F8225023623B7807E74FF0000C4FF061
:102420004508276919017D180133226AC5F804C0DF
:102430006361636A07F801809A42C5E9026E36DA81
:10244000E169531C41F8225023620378EDE64B1CEE
:10245000E3608B78313B042B32D8DFE803F0031CB8
:1024600017120D004FF001080331E1602046FFF71D
:10247000FFF8E26AE1686FE70331E1604FF00508B9
:10248000F4E70331E1604FF00408EFE70331E16066
:102490004FF00308EAE70331E1604FF00208E5E797
:1024A000E36800251B78C0E63B786546BDE6037807
:1024B0006546BAE68B780025B7E60B780025B4E6CA
:1024C0004B780025B1E68B781546AEE60B781546BD
:1024D000ABE60231E1604FF001083DE764250108F9
:1024E0002DE9F047C36804461A78472A19D0542AC0
:1024F00017D00E46FEF710FF054600287DD0002EAF
:1025000057D0A368DB0754D400E0AD682B78A3F163
:102510001C02042AF9D9022B00F086812846BDE866
:10252000F087216B01F1140222631A78542A68D0D3
:10253000472A62D15A1CE2605A78002A5DD09A1C60
:10254000E2605A78413A312A57D8DFE812F03E016A
:1025500056005600560056005600560056005600CB
:1025600056005600560056005600560056005600BB
:102570004A01560059015600E00056005600560028
:10258000560056005600560056005600560056009B
:10259000560056005600560056005600560056008B
:1025A000560056005600560056005600560056007B
:1025B000EB00E3681B78002BB0D0452BAED029464A
:1025C0000B78202B00F219821C2B80F01F82042B29
:1025D00040F091808A686AB11378082B03F1FF31CB
:1025E00000F28680072B80F08680012902D8D2680D
:1025F000002AF1D101217FE0E76000252846BDE8EF
:10260000F0875A1CE2605A78002AF6D09A1CE260E1
:102610005B78433B332BF0D801A252F823F000BF84
:1026200075290008FB250008FB2500085F29000824
:10263000FB25000849290008332900081D29000846
:10264000FB250008FB250008FB250008FB250008EA
:10265000FB250008FB250008FB250008FB250008DA
:1026600007290008ED280008FB250008D3280008EA
:10267000BD280008FB250008FB250008FB250008F5
:10268000FB250008FB250008FB250008FB250008AA
:10269000FB250008FB250008FB250008FB2500089A
:1026A00089280008FB250008FB250008FB250008F9
:1026B000FB25000863280008FB250008FB2500080F
:1026C000FB250008FB250008FB250008FB2500086A
:1026D000FB250008FB250008FB250008FB2500085A
:1026E000FB250008FB250008FB2500083D28000805
:1026F000342B7FF47FAF00212046FFF715FD2A46DB
:10270000034603212046BDE8F047FDF739BD2046CA
:10271000FEF702FE0023024613212046BDE8F047E3
:10272000FDF72EBD04F10C00FDF722FE01287FF716
:1027300064AFE3681A78002A3FF45FAF5F1CE7607C
:102740001B785F2B7FF459AF00224FF04009904671
:10275000451E3B78002B3FF450AF242B40F02A81DC
:102760007B78532B00F057815F2B00F05681242B90
:102770007FF443AF1946D4E90503E768984207F1AF
:102780000207BFF639AFD4F810C006010CEB060300
:102790000130C3F80480023D60610CF80690996036
:1027A000E760002A00F027813F212046FDF7E8FC82
:1027B000024600283FF421AF002DCADC2046BDE8C8
:1027C000F04700233E21FDF7DBBC00212046FFF748
:1027D00087FE0023024617212046BDE8F047FDF79B
:1027E000CFBC2046FEF798FD05462046FDF7ECFDE0
:1027F0002A46034616212046BDE8F047FDF7C0BC37
:102800009A78002120462AB1DA1CE2609B786E2B70
:1028100000F00A81FFF764FE0023024648212046AB
:10282000BDE8F047FDF7ACBCEA6800E092681078BC
:10283000FDF790FD0028F9D1EA606FE67621204689
:10284000FEF71CF800283FF4D8AE00212046FFF721
:1028500047FE0023024610212046BDE8F047FDF761
:102860008FBC68212046FEF709F800283FF4C5AE6A
:1028700000212046FFF734FE002302460F212046A8
:10288000BDE8F047FDF77CBC00212046FDF7F6FFD0
:1028900000283FF4B2AE00212046FDF7EFFF0028EC
:1028A0003FF4ABAE00212046FFF71AFE002302469C
:1028B00011212046BDE8F047FDF762BC2046FEF737
:1028C0002BFD0023024615212046BDE8F047FDF709
:1028D00057BC0F3121632046FEF7CAFE0023024693
:1028E00009212046BDE8F047FDF74ABC0A312163C3
:1028F0002046FEF7BDFE002302460A212046BDE821
:10290000F047FDF73DBC2046FEF7B2FE002302462D
:102910000D212046BDE8F047FDF732BC2046FEF70A
:10292000A7FE0023024612212046BDE8F047FDF72E
:1029300027BC2046FEF79CFE002302460C212046C1
:10294000BDE8F047FDF71CBC2046FEF7E5FC002380
:10295000024614212046BDE8F047FDF711BC204691
:10296000FEF786FE002302460E212046BDE8F04712
:10297000FDF706BC2046FEF77BFE054604F10C0081
:10298000FDF7F6FC0028FFF638AEE3681A785F2AF8
:102990007FF433AE0133E3602046FEF769FE236B1C
:1029A0000246591D21632B462046BDE8F0470B2106
:1029B000FDF7E6BB3E46002104E016F8013F23B1D7
:1029C000242B02D00131A942F7DBD4E90530834240
:1029D00025DA2669D4F80CC0180101336361331875
:1029E000C3F8048006F800809F600CEB0107D960F3
:1029F0006D1AE760D5E61A46DEE64C2BA3F14E02CF
:102A000004D0FFF478AE012A3FF675AE896800293C
:102A10007FF4D6AD70E62F21ADE62E21ABE6E3685C
:102A200000250B44E36079E5FFF75AFD00230246D9
:102A300049212046BDE8F047FDF7A2BBF8B5C268C2
:102A400013784C2B44D1531CC360517804465F2942
:102A500040D05A290CD10133E36000212046FFF712
:102A60003FFDE3681A78452A32D10133E360F8BDAF
:102A7000FEF7FEFD60B30378272B32D0E66833788B
:102A80006E2B37D03C21452B40D00BB3334600E0B2
:102A9000F5B10133E3601D78452DF9D19D1BD4E9D3
:102AA00005239A420BDA0027D4F810E04FEA021C03
:102AB0000EEB0C0301325F60626106B105BB0023BF
:102AC00002462046FDF75CFBE3681A78452ACCD025
:102AD0000020F8BD931CC36092785A2ABBD0002016
:102AE000C1E783681A7C002AC8D05A68236B9B1AF6
:102AF0002363C3E7721CE26073783D211646C2E788
:102B00005F600EF80C70C3E90265D9E70025C6E7DF
:102B100012B15368012B03DD0123C0F8183170474F
:102B20002DE9F04F15460133536099B0D0F82821B4
:102B3000D0F818710E4604A90446CDE90452C0F835
:102B40002811002F40F0D78028784F2801F2C78243
:102B5000DFE810F0610A900A900A2C0AB0077F079C
:102B600053074A072307FC06D506AE06870660060C
:102B7000390612062A090309DC08B5088E08670819
:102B800040081908B7099F099F099F098D098D09F8
:102B90008D098D098D098D098D09510951098D09FD
:102BA0008D09FC09F309F905840564050E05640522
:102BB000C504C5047B0450042904C50A0204FA03B1
:102BC000A60391038C0382037D037D03280328035E
:102BD0000103F402D202A1027A0253022C02F20192
:102BE000C50ACB01A4015101040178018D09D80067
:102BF0008D098D09AA6893681B685978632909D1E2
:102C00001B78A3F16301012942F20B83723B012B74
:102C100042F2078305F10C033146204603F08CFC99
:102C20008046002842F09D83AB681A78312A02F072
:102C300090859B68D449186805F0A6FAEB689A68F5
:102C400018B91378032B02F070853146204603F043
:102C500021FCAF68CD49BB68D3F80090484605F029
:102C600093FA8046002842F06D83D4F80071FF2F5C
:102C700010D13946474684F8FF00D4F80831D4F81B
:102C80000C2120469847D4F82431C4F80081013340
:102C9000C4F824315B237A1CC4F80021E35584F87E
:102CA0000431EB683146DA682046FFF731FFD4F88B
:102CB0000071FF2F11D1002639463746D4F808316C
:102CC00084F8FF60D4F80C2120469847D4F82431CA
:102CD000C4F800610133C4F824315D237A1CC4F8C0
:102CE0000021E35584F80431AB681A78312A02F0E8
:102CF000FE82059A6B68013BC4F828216B6019B00D
:102D0000BDE8F08FA24F3146AA682046FFF700FFCA
:102D10004FF00009D4F8001107F1080817E0D4F8C3
:102D20000831D4F80C2184F8FF90204698470121FF
:102D30000022D4F824310B44C4F82431B845C4F837
:102D4000001104F802A084F804A101F04184FF29D5
:102D500017F801AFE3D00A460131EFE7A968204632
:102D6000FDF702FD002802F00182002302782F2ADD
:102D700041F0E3848268002A01F0DF84C0680133F7
:102D80000028F3D11946AB6801934FF0000A894639
:102D90004A1E02920395C4F82071019A31462046DA
:102DA000FFF7B6FE029B9F4281F29F81794DD4F8D6
:102DB000001105F1020817E0D4F80831D4F80C210D
:102DC00084F8FFA02046984701210022D4F824313E
:102DD0000B44C4F82431A845C4F8001104F802B02B
:102DE00084F804B101F08181FF2915F801BBE3D01B
:102DF0000A460131EFE7684F4FF00009D4F800119F
:102E000007F11A0817E0D4F80831D4F80C2184F837
:102E1000FF902046984701210022D4F824310B442A
:102E2000C4F82431B845C4F8001104F802A084F8AD
:102E300004A101F07581FF2917F801AFE3D00A461C
:102E40000131EFE7554F3146AA682046FFF760FE93
:102E50004FF00009D4F8001107F1050817E0D4F885
:102E60000831D4F80C2184F8FF90204698470121BE
:102E70000022D4F824310B44C4F82431B845C4F8F6
:102E8000001104F802A084F804A101F0C783FF290F
:102E900017F801ABE3D00A460131EFE7404F4FF09E
:102EA0000009D4F8001107F1160817E0D4F808312A
:102EB000D4F80C2184F8FF90204698470121002285
:102EC000D4F824310B44C4F82431B845C4F80011B7
:102ED00004F802A084F804A101F03983FF2917F84F
:102EE00001AFE3D00A460131EFE72E4E4FF0000864
:102EF000D4F8001106F10E0717E0D4F80831D4F821
:102F00000C2184F8FF802046984701210022D4F844
:102F100024310B44C4F82431B742C4F8001104F83A
:102F2000029084F8049101F02383FF2916F8019F91
:102F3000E3D00A460131EFE71B4F4FF00009D4F808
:102F4000001107F1080817E0D4F80831D4F80C2173
:102F500084F8FF902046984701210022D4F82431BC
:102F60000B44C4F82431B845C4F8001104F802A099
:102F700084F804A101F05E82FF2917F801AFE3D0C5
:102F80000A460131EFE700BF28250108282701087C
:102F9000E3270108FC260108C72601086825010867
:102FA000CB260108D3270108C3270108B74F4FF0EC
:102FB0000009D4F8001107F11C0817E0D4F8083113
:102FC000D4F80C2184F8FF90204698470121002274
:102FD000D4F824310B44C4F82431B845C4F80011A6
:102FE00004F802A084F804A101F05882FF2917F820
:102FF00001AFE3D00A460131EFE7A54F4FF00009DA
:10300000D4F8001107F11D0817E0D4F80831D4F8FE
:103010000C2184F8FF902046984701210022D4F823
:1030200024310B44C4F824314745C4F8001104F896
:1030300002A084F804A101F0CE81FF2917F801AFA6
:10304000E3D00A460131EFE7924F4FF00009D4F880
:10305000001107F10A0817E0D4F80831D4F80C2160
:1030600084F8FF902046984701210022D4F82431AB
:103070000B44C4F82431B845C4F8001104F802A088
:1030800084F804A101F0B081FF2917F801ABE3D067
:103090000A460131EFE708A8AA687F4905F000F861
:1030A00008A805F0EDF9002801F0438008AE4FF0C4
:1030B0000008D4F80011371817E0D4F80831D4F814
:1030C0000C2184F8FF802046984701210022D4F883
:1030D00024310B44C4F82431BE42C4F8001104F872
:1030E000029084F8049101F02480FF2916F8019BD6
:1030F000E3D00A460131EFE7D4F8007195F8088073
:10310000FF2F11D1002639463746D4F8083184F80C
:10311000FF60D4F80C2120469847D4F82431C4F835
:1031200000610133C4F824317B1CC4F8003104F879
:10313000078084F804816B68059ADCE5AA6831464B
:103140002046FFF7E5FCEA6831462046FFF7E0FC41
:10315000059A6B68CFE5514F4FF00009D4F8001184
:1031600007F10E0817E0D4F80831D4F80C2184F8E0
:10317000FF902046984701210022D4F824310B44C7
:10318000C4F82431B845C4F8001104F802A084F84A
:1031900004A100F0D287FF2917F801AFE3D00A4657
:1031A0000131EFE7AB681A78272A01F011854FF05B
:1031B0000008D4F80071FF2F12D14FF000093946F2
:1031C0004F46D4F8083184F8FF90D4F80C212046FB
:1031D0009847D4F82431C4F800910133C4F824315D
:1031E00028237A1CC4F80021E35584F80431AA6826
:1031F00031462046FFF78CFCD4F80031FF2B41F01C
:1032000044860022194684F8FF20D4F80831D4F807
:103210000C212046984729230121237084F804318A
:103220002A78D4F824313D2A0B44C4F82431C4F858
:10323000001101F04786B8F1080F01F0F584EA6843
:1032400031462046FFF764FC059A6B6853E501237D
:10325000C4F818316B684EE5EB6819783A2901F02B
:10326000D4830123C4F818316B6844E50123C4F802
:1032700018316B683FE5EB681B78382B3FF4BAAC2C
:103280000123C4F818316B6835E500BFA327010896
:103290008327010864270108202501085327010816
:1032A000D5E9029899F80030312B01F05185332B84
:1032B00042F02E82D4F80071FF2F12D14FF0000A95
:1032C00039465746D4F8083184F8FFA0D4F80C21C9
:1032D00020469847D4F82431C4F800A10133C4F83B
:1032E000243128237A1CC4F80021E35584F80431E2
:1032F000D9F8082031462046FFF70AFCD4F80071BF
:10330000FF2F12D14FF0000939464F46D4F808314B
:1033100084F8FF90D4F80C2120469847D4F8243143
:10332000C4F800910133C4F8243129237A1CC4F86D
:103330000021E35584F8043142463146204603F02B
:10334000A9F8059A6B68D6E4AA683146204603F0CE
:1033500063F8059A6B68CEE4D04F4FF00009D4F8BB
:10336000001107F1090817E0D4F80831D4F80C214E
:1033700084F8FF902046984701210022D4F8243198
:103380000B44C4F82431B845C4F8001104F802A075
:1033900084F804A100F0E386FF2917F801AFE3D019
:1033A0000A460131EFE7BD4F4FF00009D4F8001194
:1033B00007F1090817E0D4F80831D4F80C2184F893
:1033C000FF902046984701210022D4F824310B4475
:1033D000C4F82431B845C4F8001104F802A084F8F8
:1033E00004A100F0B386FF2917F801AFE3D00A4625
:1033F0000131EFE7D5F808A0A94E4FF00009DAF83F
:103400000870D4F8001106F1080817E0D4F8083164
:10341000D4F80C2184F8FF9020469847012100221F
:10342000D4F824310B44C4F824314645C4F80011C3
:1034300004F802B084F804B100F0AF86FF2916F852
:1034400001BFE3D00A460131EFE7D5E902281AB1FE
:1034500031462046FFF75CFBD4F80071FF2F12D1F4
:103460004FF0000939464F46D4F8083184F8FF90F0
:10347000D4F80C2120469847D4F82431C4F80091A0
:103480000133C4F824317B23781CC4F80001424680
:10349000E3553146204684F80431FFF739FBD4F870
:1034A0000071FF2F11D1002639463746D4F8083174
:1034B00084F8FF60D4F80C2120469847D4F82431D2
:1034C000C4F800610133C4F824317D237A1CC4F8A8
:1034D0000021E35584F804316B68059A0BE4AA686F
:1034E0001AB131462046FFF713FBEB68002B01F0C1
:1034F0000685D4F80071FD2F12D94FF00008394627
:1035000004F807804746D4F80831D4F80C21204647
:103510009847D4F82431C4F800810133C4F8243129
:10352000DFF8888108F1020B1BE04FF000033946F9
:1035300001274FF0000A84F8FF30D4F80C21D4F8AA
:10354000083120469847D4F824313B44C4F824314C
:10355000C345C4F8007104F80A9084F8049101F09E
:10356000AC80FF2F18F8019BDFD0BA460137EFE798
:10357000B5F90E30002B41F06184AA68494B91687F
:10358000994220D031462046FFF7C2FAD4F80071A4
:10359000FF2F11D1002639463746D4F8083184F878
:1035A000FF60D4F80C2120469847D4F82431C4F8A1
:1035B00000610133C4F8243120237A1CC4F80021AF
:1035C000E35584F80431B5F90C30D4F80011002B20
:1035D00001F0E580344E4FF0000806F1060916E0D0
:1035E000D4F80831D4F80C2184F8FF80204698479D
:1035F00001210022D4F824310B44C4F82431B14510
:10360000C4F80011A75484F8047101F06680FF2902
:1036100016F8017BE4D00A460131F0E70020D4F827
:10362000142118AB43F8402DD4F81071C4F81431AC
:10363000CDE90950EA68314620460B97FFF768FA52
:103640000A9B23B931462A46204602F0BDF8089B62
:10365000059AC4F814316B68FFF74DBBD4F814C158
:103660000022E14618A9D4F8103141F840CD01916B
:10367000C4F814110995CDE90A23B9F1000F01F03E
:103680008385D9F804301B78193B022B01F27C8525
:10369000A3464FF001084F460C460EE00B270108E9
:1036A000FF260108681A0108EC260108FC2601081B
:1036B0007B681B78193B022B1ED8BB684FEA081A9F
:1036C000BBB9B8F1030F01F26C8597E80F000DF15B
:1036D000600CD444ACF1400E8EE80F00019B4CF816
:1036E000404C03EB0A040123CBF8144108F1010814
:1036F000BB603F68002FDBD1EA6831465846FFF7D0
:1037000007FA0A9B5C46CBF81491C3B9B8F1010FD4
:103710000DD0019B0CAF03EB081858F80C2C314668
:10372000A8F11008204602F04FF84745F5D1314680
:10373000D4F8143105F10802204602F097FD059AED
:103740006B68FFF7D8BAB20626F06008D4F81431D7
:1037500001F10D82AA681AB116F0400601F07E84CC
:10376000D4F8143105F10C024146204602F054FB16
:10377000059A6B68FFF7BFBAC64F4FF00009D4F83F
:10378000001107F1150817E0D4F80831D4F80C211E
:1037900084F8FF902046984701210022D4F8243174
:1037A0000B44C4F82431B845C4F8001104F802A051
:1037B00084F804A100F09385FF2917F801AFE3D046
:1037C0000A460131EFE7B44F4FF00009D4F8001179
:1037D00007F1100817E0D4F80831D4F80C2184F868
:1037E000FF902046984701210022D4F824310B4451
:1037F000C4F82431B845C4F8001104F802A084F8D4
:1038000004A100F07585FF2917F801AFE3D00A463F
:103810000131EFE7A14F4FF00009D4F8001107F193
:10382000120817E0D4F80831D4F80C2184F8FF907E
:103830002046984701210022D4F824310B44C4F8D3
:103840002431B845C4F8001104F802A084F804A19A
:1038500000F03385FF2917F801AFE3D00A460131A4
:10386000EFE78F4F4FF00009D4F8001107F10D0872
:1038700017E0D4F80831D4F80C2184F8FF902046E2
:10388000984701210022D4F824310B44C4F8243194
:10389000B845C4F8001104F802A084F804A100F0AF
:1038A0001585FF2917F801ABE3D00A460131EFE790
:1038B0007C4F4FF00009D4F8001107F1180817E009
:1038C000D4F80831D4F80C2184F8FF9020469847AA
:1038D00001210022D4F824310B44C4F82431B84526
:1038E000C4F8001104F802A084F804A100F0A88430
:1038F000FF2917F801AFE3D00A460131EFE76A4F1D
:103900004FF00009D4F8001107F1080817E0D4F8C7
:103910000831D4F80C2184F8FF9020469847012103
:103920000022D4F824310B44C4F82431B845C4F83B
:10393000001104F802A084F804A100F0B584FF2966
:1039400017F801AFE3D00A460131EFE7574F4FF0C8
:103950000009D4F8001107F10B0817E0D4F808317A
:10396000D4F80C2184F8FF902046984701210022CA
:10397000D4F824310B44C4F82431B845C4F80011FC
:1039800004F802A084F804A100F01C85FF2917F8B0
:1039900001ABE3D00A460131EFE7D4F80071FF2F05
:1039A00012D14FF0000839464746D4F8083184F860
:1039B000FF80D4F80C2120469847D4F82431C4F86D
:1039C00000810133C4F824317E237A1CC4F800211D
:1039D000E35584F80431EA6831462046FFF798F849
:1039E000059A6B68FFF787B9EA6831462046FFF70A
:1039F0008FF8059A6B68FFF77EB9D5F80880D4F880
:103A00000011B8F1000F00F0A286294E4FF0000916
:103A100006F1060A16E0D4F80831D4F80C2184F82F
:103A2000FF902046984701210022D4F824310B440E
:103A3000C4F82431B245C4F80011A75484F80471C5
:103A400000F0D086FF2916F8017BE4D00A46013148
:103A5000F0E7D4F81C31002B40F0138705F1080182
:103A60002046FCF771FE0246002801F041820378EF
:103A70002F2B01F03282D4F8107131463B6820467A
:103A8000C4F81031FFF744F8C4F81071059A6B6858
:103A9000FFF731B90F260108FB250108E7250108CA
:103AA000D8250108B3250108A72501089C25010890
:103AB0007C27010800237107D4F81491D4F84481BD
:103AC000C4F81431C4F84451AF6805D53B781BB92C
:103AD000FA68062A01F026853A4631462046FFF765
:103AE00017F894F804313C2B01F01281D4F80071DE
:103AF000FF2F12D14FF0000A39465746D4F808314B
:103B000084F8FFA0D4F80C2120469847D4F824313B
:103B1000C4F800A10133C4F824313C237A1CC4F852
:103B20000021E35584F804313146EA682046FEF767
:103B3000EFFF94F804313E2B01F02B80D4F8007194
:103B4000FF2F11D1002639463746D4F8083184F8C2
:103B5000FF60D4F80C2120469847D4F82431C4F8EB
:103B600000610133C4F824313E237A1CC4F80021DB
:103B7000E35584F80431C4F81491C4F84481059ADB
:103B80006B68FFF7B8B8D54F4FF00009D4F80011B3
:103B900007F1110817E0D4F80831D4F80C2184F8A3
:103BA000FF902046984701210022D4F824310B448D
:103BB000C4F82431B845C4F8001104F802A084F810
:103BC00004A100F0C283FF2917F801AFE3D00A4631
:103BD0000131EFE7C24F4FF00009D4F8001107F1AF
:103BE000150817E0D4F80831D4F80C2184F8FF90B8
:103BF0002046984701210022D4F824310B44C4F810
:103C00002431B845C4F8001104F802A084F804A1D6
:103C100000F0A483FF2917F801AFE3D00A46013171
:103C2000EFE7B04F4FF00009D4F8001107F1190881
:103C300017E0D4F80831D4F80C2184F8FF9020461E
:103C4000984701210022D4F824310B44C4F82431D0
:103C5000B845C4F8001104F802A084F804A100F0EB
:103C60006283FF2917F801AFE3D00A460131EFE77D
:103C70009D4F4FF00009D4F8001107F1160817E026
:103C8000D4F80831D4F80C2184F8FF9020469847E6
:103C900001210022D4F824310B44C4F82431B84562
:103CA000C4F8001104F802A084F804A100F04483D1
:103CB000FF2917F801AFE3D00A460131EFE78B4F38
:103CC0004FF00009D4F8001107F1130817E0D4F8F9
:103CD0000831D4F80C2184F8FF9020469847012140
:103CE0000022D4F824310B44C4F82431B845C4F878
:103CF000001104F802A084F804A100F00283FF2957
:103D000017F801AFE3D00A460131EFE7784F4FF0E3
:103D10000009D4F8001107F10F0817E0D4F80831B2
:103D2000D4F80C2184F8FF90204698470121002206
:103D3000D4F824310B44C4F82431B845C4F8001138
:103D400004F802A084F804A100F0E482FF2917F827
:103D500001AFE3D00A460131EFE7664F4FF00009AB
:103D6000D4F8001107F11A0817E0D4F80831D4F894
:103D70000C2184F8FF902046984701210022D4F8B6
:103D800024310B44C4F82431B845C4F8001104F8B8
:103D900002A084F804A100F0B181FF2917F801AF57
:103DA000E3D00A460131EFE7534F4FF00009D4F852
:103DB000001107F1110817E0D4F80831D4F80C21EC
:103DC00084F8FF902046984701210022D4F824313E
:103DD0000B44C4F82431B845C4F8001104F802A01B
:103DE00084F804A100F09381FF2917F801AFE3D014
:103DF0000A460131EFE7D4F81C71D5F80890002F7E
:103E000040F0CA8499F80030052B01F06B8199F8D5
:103E10000030232B06D02A789A4203D0242B01F0BD
:103E20005482A946D4F814C10021D4F8102118AB4B
:103E3000CDE90A1243F840CDCDF82490C4F81431EE
:103E4000D9F8082031462046FEF762FE0A9B23B9C6
:103E50004A463146204601F0B7FC089BC4F81431AD
:103E60000FB1C4F81081059A6B68FEF744BF0022B9
:103E70000020D4F8141118AB43F8401DD4F81011E9
:103E80000995C4F81431CDE90A01A946002AD9D10F
:103E9000D6E7D4F814C16346BCF1000F0FD099687F
:103EA00051B95A681278A2F1190EBEF1020F01F24F
:103EB000CD80904201F0C1801B68002BEFD1A94654
:103EC000B2E7D5E90267002F3EF415AF37444FF053
:103ED0000008D4F80011013F013E27E0B326010895
:103EE0009B2601087F260108672601085326010842
:103EF000432601082726010813260108D4F80831B3
:103F0000D4F80C2184F8FF80204698470121002234
:103F1000D4F824310B44C4F82431B742C4F800115A
:103F200004F8029084F8049100F0C383FF2916F886
:103F3000019FE3D00A460131EFE7AA6831462046E7
:103F4000FEF7E6FD059A6B68FEF7D5BE16F004068F
:103F5000A86840F0C683D0E90007002F3EF4CBAE3E
:103F60000744B146D4F80011013F461E17E0D4F8CB
:103F70000831D4F80C2184F8FF902046984701219D
:103F80000022D4F824310B44C4F82431B742C4F8D9
:103F9000001104F8028084F8048100F0F384FF2902
:103FA00016F8018FE3D00A460131EFE70021D4F87B
:103FB0001431D5F808800393C4F81411B8F1000F38
:103FC00022D008AB01930F4689461A460B4641465C
:103FD000D4F810B191F800A013605046C2E901195D
:103FE000C2F80CB001379046FCF7B4F9002800F095
:103FF0008A878968002901F02683042F02F11002C4
:104000004346E7D1C4F814810123C4F81831059A56
:104010006B68FEF770BE16F00406AF6840F05E8471
:10402000E96800293EF467AEB0467E18013ED4F838
:104030000011013F17E0D4F80831D4F80C2184F8BE
:10404000FF802046984701210022D4F824310B44F8
:10405000C4F82431BE42C4F8001104F8029084F878
:10406000049100F09384FF2917F8019FE3D00A46DA
:104070000131EFE7AA6831462046FEF749FD16F008
:10408000040900F01586D4F80071FF2F12D14FF00B
:10409000000839464746D4F8083184F8FF80D4F840
:1040A0000C2120469847D4F82431C4F8008101330C
:1040B000C4F824312E237A1CC4F80021E35584F877
:1040C0000431EF683B78462B00F0A5873A4631462D
:1040D0002046FEF71DFD059A6B68FEF70CBE012316
:1040E000C4F818316B68FEF706BE01374F457EF401
:1040F00052AE039D059A6B68FEF7FDBDAA68314676
:104100002046FEF705FD059A6B68FEF7F4BDAA6828
:1041100031462046FEF7FCFC059A6B68FEF7EBBDC6
:10412000AA6831462046FEF7F3FC059A6B68FEF755
:10413000E2BD059A6B68FEF7DEBDAA6831462046EF
:10414000FEF7E6FC059A6B68FEF7D5BDEA683146D6
:104150002046FEF7DDFC059A6B68FEF7CCBDD4F86F
:1041600044213AB1D4F8101118AB43F8401D09921C
:10417000C4F81031AA681378042B00F0A0843146EB
:104180002046FEF7C5FCD4F8443113B1089BC4F8AF
:104190001031059A6B68FEF7AEBDDAF8046033782B
:1041A000613B192B1CD8FF290FD10026D4F8083108
:1041B00084F8FF60D4F80C2120469847D4F82431C5
:1041C000C4F800610133C4F824312023D4F800215D
:1041D000511CC4F80011A35484F80431DAF80460C7
:1041E000F31913F8013C202B08BF07F1FF37002F0C
:1041F00000F03087013E4FF00008D4F8001137443A
:1042000017E0D4F80831D4F80C2184F8FF80204658
:10421000984701210022D4F824310B44C4F82431FA
:10422000BE42C4F8001104F8029084F8049100F032
:104230003C82FF2916F8019FE3D00A460131EFE7DF
:10424000C74F3146AA682046FEF762FC4FF00009CE
:10425000D4F8001107F1040816E0D4F80831D4F8B6
:104260000C2184F8FF902046984701210022D4F8C1
:1042700024310B44C4F82431B845C4F8001104F8C3
:1042800002A084F804A106D0FF2917F801ABE4D0FE
:104290000A460131F0E7EA6831462046FEF738FC6D
:1042A000059A6B68FEF727BDAA6831462046FEF7DF
:1042B0002FFC059A6B68FEF71EBDAA6831462046A2
:1042C000FEF726FC059A6B68FEF715BDAA68314615
:1042D0002046FEF71DFC059A6B68FEF70CBDAA6828
:1042E00031462046FEF714FC059A6B68FEF703BDC5
:1042F000AA6831462046FEF70BFC059A6B68FEF76C
:10430000FABCAA6831462046FEF702FC059A6B68A3
:10431000FEF7F1BCAA6831462046FEF7F9FB059A84
:104320006B68FEF7E8BCAA6831462046FEF7F0FB52
:10433000059A6B68FEF7DFBCAA6831462046FEF797
:10434000E7FB059A6B68FEF7D6BCAA6831462046A3
:10435000FEF7DEFB059A6B68FEF7CDBC814F314658
:10436000EA682046FEF7D4FB4FF00009D4F80011AC
:1043700007F1050816E0D4F80831D4F80C2184F8C8
:10438000FF902046984701210022D4F824310B44A5
:10439000C4F824314745C4F8001104F802A084F899
:1043A00004A106D0FF2917F801ABE4D00A46013179
:1043B000F0E7AA6831462046FEF7AAFB059A6B682B
:1043C000FEF799BCAA6831462046FEF7A1FB059A84
:1043D0006B68FEF790BCAA6831462046FEF798FB52
:1043E000059A6B68FEF787BC3146AA682046FEF73F
:1043F0008FFBD4F80071FF2F11D1002639463746C4
:10440000D4F8083184F8FF60D4F80C21204698478E
:10441000D4F82431C4F800610133C4F824312923CD
:104420007A1CC4F80021E35584F804316B68059ABE
:10443000FEF761BCD4F81C3131460133C4F81C319D
:10444000AA682046FEF764FBD4F81C31464E013BB7
:104450000027D4F80011C4F81C3106F1020816E058
:10446000D4F80831D4F80C2184F8FF70204698471E
:1044700001210022D4F824310B44C4F824314645EC
:10448000C4F8001104F8029084F804910FD0FF29B9
:1044900016F8019BE4D00A460131F0E7AA683146DC
:1044A0002046FEF735FB059A6B68FEF724BCEA68E8
:1044B00008A801322D4903F0F3FD08A803F0E0FF3E
:1044C00020B308AE4FF00008D4F80011371816E0FA
:1044D000D4F80831D4F80C2184F8FF80204698479E
:1044E00001210022D4F824310B44C4F82431BE4207
:1044F000C4F8001104F8029084F8049108D0FF2950
:1045000016F8019BE4D00A460131F0E7D4F8001117
:10451000FF290FD10026D4F8083184F8FF60D4F8C1
:104520000C2120469847D4F82431C4F800610133A7
:10453000C4F824317D23D4F80011059A481CC4F82E
:104540000001635484F804316B68FEF7D4BBAA6899
:1045500031462046FEF7DCFA059A6B68FEF7CBBBC6
:10456000D025010894260108D0270108202501083C
:10457000AA6808A80132D54903F092FD08A803F003
:104580007FFF002870D008AE4FF00008D4F800116B
:10459000371816E0D4F80831D4F80C2184F8FF80DD
:1045A0002046984701210022D4F824310B44C4F856
:1045B0002431B742C4F8001104F8029084F8049141
:1045C00054D0FF2916F8019BE4D00A460131F0E7E8
:1045D0003146EA682046FEF79BFAD4F80071FF2FB7
:1045E00011D1002639463746D4F8083184F8FF60E7
:1045F000D4F80C2120469847D4F82431C4F800613F
:104600000133C4F824315D237A1CC4F80021E3553A
:1046100084F804316B68059AFEF76DBB3146EA6891
:104620002046FEF775FAD4F80071FF2F11D100264D
:1046300039463746D4F8083184F8FF60D4F80C21A5
:1046400020469847D4F82431C4F800610133C4F8F7
:1046500024315D237A1CC4F80021E35584F8043129
:104660006B68059AFEF747BBD4F80011FF290FD1FC
:104670000026D4F8083184F8FF60D4F80C212046D5
:104680009847D4F82431C4F800610133C4F82431C8
:104690007D23D4F80011059A481CC4F80001635426
:1046A00084F804316B68FEF726BB059A6B68FEF749
:1046B00022BB059A6B68FEF71EBB3146EA682046AE
:1046C000D4F82461FEF724FAD4F824319E4200F095
:1046D0009584059A6B68FEF70EBB059A6B68FEF72A
:1046E0000ABBD0E90267002F3EF405AB37444FF018
:1046F0000009D4F80011013F013E17E0D4F8083159
:10470000D4F80C2184F8FF9020469847012100221C
:10471000D4F824310B44C4F82431B742C4F8001152
:1047200004F8028084F8048100F06B81FF2916F8F8
:10473000018FE3D00A460131EFE7AA6819460192DA
:10474000002B7EF422AB059A6B68FEF7D4BA604E5C
:1047500006F1040915E0D4F80831D4F80C2184F8E6
:10476000FF802046984701210022D4F824310B44D1
:10477000C4F82431B145C4F80011A75484F8047179
:1047800006D0FF2916F8017BE5D00A460131F1E792
:10479000059A6B68FEF7AFBA0027FFF738BB4D4E9E
:1047A000984606F1060916E0D4F80831D4F80C2131
:1047B00084F8FF802046984701210022D4F8243154
:1047C0000B44C4F82431B145C4F80011A75484F84F
:1047D000047100F0B180FF2916F8017BE4D00A468D
:1047E0000131F0E7424608A8384903F059FC08A80F
:1047F00003F046FE20B308AE4FF00008D4F80011D5
:1048000006EB000915E0D4F80831D4F80C2184F83F
:10481000FF802046984701210022D4F824310B4420
:10482000C4F82431B145C4F80011A75484F80471C8
:1048300006D0FF2916F8017BE5D00A460131F1E7E1
:10484000D4F80071FF2F11D1002639463746D4F82D
:10485000083184F8FF60D4F80C2120469847D4F83A
:104860002431C4F800610133C4F824317D237A1C5B
:10487000C4F80021E35584F804316B68059AFEF70B
:104880003ABA154E4FF00008D4F8001106F10509A8
:1048900015E0D4F80831D4F80C2184F8FF802046C4
:1048A000984701210022D4F824310B44C4F8243164
:1048B000B145C4F80011A75484F804716AD0FF29E7
:1048C00016F8017BE5D00A460131F1E72025010801
:1048D00074270108F426010894250108EE683E4477
:1048E000BE427EF608AA4FF0000817E0D4F808315F
:1048F000D4F80C2184F8FF8020469847012200213B
:10490000D4F824311344C4F82431C4F8002104F845
:10491000019084F804910137BE426ED9F31B032B3A
:1049200097F8009002DDB9F15F0F09D0D4F80011BB
:10493000FF29DBD04A1CE8E7059A6B68FEF7DBB974
:104940007B785F2BF2D1BB78552BEFD1F91C00207F
:1049500002E0134603EB00108E428A46E6D911F8B6
:10496000013BA3F130025FFA82FEBEF1090FA3F111
:10497000410CEED9BCF1050FA3F1610200F2A9844C
:10498000373BE7E7059A6B68FEF7B5B9059A6B68A0
:10499000FEF7B1B9AA6808A80132D84903F080FB34
:1049A00008A803F06DFD20B308AE4FF00008D4F85E
:1049B000001106EB000915E0D4F80831D4F80C21F9
:1049C00084F8FF802046984701210022D4F8243142
:1049D0000B44C4F82431B145C4F80011A75484F83D
:1049E000047106D0FF2916F8017BE5D00A46013193
:1049F000F1E7059A6B68FEF77EB9059A6B68FEF7DA
:104A00007AB9059A6B68FEF776B9DB681B783B2BA1
:104A10007EF427AC05F10C03AA683146204601F06C
:104A20008BFD8046002840F06286D5E90272B968A5
:104A3000D3680868B249D2F808B0D3E902A903F0F4
:104A4000A3FB002800F036860422AE492046FBF77F
:104A50004BFCDBF8083003B35A463146204601F0E0
:104A600019FDD4F80071FF2F10D139464746D4F80C
:104A7000083184F8FF80D4F80C2120469847D4F8F8
:104A80002431C4F800810133C4F8243120237A1C76
:104A9000C4F80021E35584F80431524631462046DB
:104AA000FEF736F8B9F1000F00F025864A46314688
:104AB000204601F0EFFC059A6B68FEF71CB992687E
:104AC00031462046FEF724F8D4F8443113B1089B50
:104AD000C4F8103194F804313C2B00F0FB84D4F876
:104AE0000071FF2F12D14FF0000839464746D4F825
:104AF000083184F8FF80D4F80C2120469847D4F878
:104B00002431C4F800810133C4F824313C237A1CD9
:104B1000C4F80021E35584F80431AB683146DA6803
:104B20002046FDF7F5FF94F804313E2B00F0B384E6
:104B3000D4F80071FF2F11D1002639463746D4F83A
:104B4000083184F8FF60D4F80C2120469847D4F847
:104B50002431C4F800610133C4F824313E237A1CA7
:104B6000C4F80021E35584F80431FFF712BB05F1C6
:104B70000C024146204601F04FF9AA68002A00F0D5
:104B8000F48341462046FDF7C3FF059A6B68FEF7A4
:104B9000B2B8D4F80071FF2F11D10026394637463C
:104BA000D4F8083184F8FF60D4F80C2120469847E7
:104BB000D4F82431C4F800610133C4F8243120232F
:104BC0007A1CC4F80021E35584F80431FEF7B6BF1F
:104BD0009B6893F81080B8F1000F3EF4EAAAB8F190
:104BE000060F40F2D883B8F1070F7EF4E2AAEB6813
:104BF0001A78002A7EF4DDAADA68012A7EF4D9AA9E
:104C00003C287EF4D6AA9B681B78302B00F0778571
:104C1000312B7EF4CEAA04223B492046FBF764FBED
:104C2000059A6B68FEF767B8D4F80071FF2F12D1B0
:104C30004FF0000839464746D4F8083184F8FF8021
:104C4000D4F80C2120469847D4F82431C4F80081C8
:104C50000133C4F824315B237A1CC4F80021E355E6
:104C600084F804313146EA682046FDF751FFD4F854
:104C70000071FF2F11D1002639463746D4F808318C
:104C800084F8FF60D4F80C2120469847D4F82431EA
:104C9000C4F800610133C4F824315D237A1CC4F8E0
:104CA0000021E35584F804316B68059AFEF723B8B8
:104CB000164FD4F8001107F1020A17E0D4F80831B2
:104CC000D4F80C2184F8FF90204698470121002356
:104CD000D4F824210A44C4F82421BA45C4F80011A8
:104CE00004F8038084F804813FF4EBA9FF2917F846
:104CF000018BE3D00B460131EFE700BF202501080F
:104D000034250108302701084C27010870250108C7
:104D1000D4F80071FF2F12D14FF0000A39465746E0
:104D2000D4F8083184F8FFA0D4F80C212046984725
:104D3000D4F82431C4F800A10133C4F8243120236D
:104D40007A1CC4F80021E35584F80431FEF7CEBE86
:104D5000D9F80830DB49D3F800A0504603F014FA24
:104D600098F8003010B9032B00F08883382B00F03E
:104D70007083D549504603F007FA0746002800F033
:104D8000F882D249504603F0FFF9002800F00F8264
:104D9000314620464A4601F03FFBCD49504603F0DC
:104DA000F3F9002800F034825046CA4903F0ECF9C8
:104DB000814600287EF4C0AAD4F80071FF2F10D1DC
:104DC00039464F4684F8FF00D4F80831D4F80C2156
:104DD00020469847D4F82431C4F800910133C4F830
:104DE00024312823781CC4F800014246E35531469B
:104DF000204684F80431FDF78BFED4F80071FF2FB4
:104E000011D1002639463746D4F8083184F8FF60BE
:104E1000D4F80C2120469847D4F82431C4F8006116
:104E20000133C4F8243129237A1CC4F80021E35546
:104E300084F804316B68059AFDF75DBFA64F4FF00B
:104E4000000AD4F8001107F1050917E0D4F8083179
:104E5000D4F80C2184F8FFA02046984701210023B4
:104E6000D4F824210A44C4F82421B945C4F8001117
:104E700004F8038084F804813EF47FABFF2917F81F
:104E8000018BE3D00B460131EFE72922591CC4F80E
:104E90000011E25484F804212B783D2B7EF4CBA939
:104EA000FF290FD10027D4F8083184F8FF70D4F817
:104EB0000C2120469847D4F82431C4F800710133FE
:104EC000C4F824312D23D4F80021511CC4F800115A
:104ED000A35484F80431FEF7AEB9D4F820110029A8
:104EE000FEF6C9ADFBF71AFC024600287EF4C3ADFE
:104EF0000123C4F818316B68059AFDF7FCBE059ACA
:104F00006B68FDF7F8BEBAF1040F8846C4F81421A7
:104F100000F0E581BAF1020F2ED1D8F80C9099F883
:104F20000030462B00F09683019B029503EB071A95
:104F3000AAF10C0A17E0042F00F08983AAF10405F6
:104F40000AF10C0E95E80F008EE80F000023E246F0
:104F50004CF8109C4CF80C3CD9F808904CE902B580
:104F60000137C4F814E199F80000FBF7F3F90AF1EE
:104F7000100C0028DFD1029DEA6831462046FDF77B
:104F8000C7FDA94698F800304FF02008042B08BF51
:104F9000069B4FEA071708BFC4F81031019B03EBCB
:104FA000070A5AF8085C0DBBD4F80031FF2B10D16A
:104FB0001946D4F80C21D4F8083184F8FF50204663
:104FC00098472B46D4F82421C4F800510132C4F884
:104FD0002421591CC4F800115AF80C2C04F8038041
:104FE0003146204684F8048100F0EEFB103FD5D115
:104FF000039B4D46C4F81431FFF709B8D4F80011EB
:10500000059AB9426B687DF476AE0AF1FF31C4F8B7
:105010000011FDF770BE0D2230492046FBF764F900
:10502000F96820460131FBF753FC03222C49204646
:10503000FBF75AF9BF68FFF749B8AA68314620461E
:10504000FDF766FD059A6B68FDF755BE0F46A9464C
:10505000FEF7EABE059A6B68FDF74DBE18A941F848
:10506000403DD4F81031C4F8141120464146CDE932
:1050700009560B93FDF74CFD089B0A9EC4F81431AA
:10508000002E40F0A481D4F80071FF2F10D13946D2
:105090003746D4F8083184F8FF60D4F80C21204654
:1050A0009847D4F82431C4F800610133C4F824319E
:1050B00020237A1CC4F80021E35584F80431FEF75C
:1050C0004FBB00BF182701081C2701082425010831
:1050D00020270108402A0108E42601087425010858
:1050E00084250108D4F83001D4F82CE1002814DD1F
:1050F000DEF80030994500F06E810EF1080BBC46D9
:1051000007E05EF83C30DA4699450BF1080B00F0F9
:1051100063810CF1010C6045F3D1D4F8343198422D
:1051200080F2FD82431C0EEBC00CD4F81011C4F8C1
:1051300030310CF1040C4EF83090002900F0B782A9
:10514000D4F83C01D4F8403100F1010E984280F2CD
:10515000E682D4F83831C4F83CE103EBC003486878
:105160005860CCF8003009689C46E6E73146AA68EA
:10517000204601F08FF90322BD492046FBF7B4F821
:10518000059A6B68FDF7B7BDEA6831462046FDF722
:10519000BFFC0A9BC4F81491002B3EF4C8AAFEF78A
:1051A000CEBA01235C46CBF81831FEF7C8BA0646E2
:1051B000474601E0FF681FB33B782F2B20D1BB6827
:1051C000F3B11A784A2A18BF0136F3D199682046FC
:1051D000FBF7CAFA002800F0E58203782F2B40F095
:1051E000E182836853B1002304E002782F2A05D1BD
:1051F00082681AB1C06801330028F6D11E44D9E78D
:1052000031462046FBF764FB059A6B68FDF773BDDA
:10521000424631462046FDF77BFC059A6B68FDF758
:105220006ABD3146204601F0F7F8D4F80071FF2F2F
:1052300012D14FF0000839464746D4F8083184F8B7
:10524000FF80D4F80C2120469847D4F82431C4F8C4
:1052500000810133C4F824313C237A1CC4F80021B6
:10526000E35584F80431EB6831469A682046FDF72F
:105270004FFC02227F492046FBF736F8EB683146A7
:10528000DA682046FDF744FCD4F80071FF2F11D1F5
:10529000002639463746D4F8083184F8FF60D4F840
:1052A0000C2120469847D4F82431C4F8006101331A
:1052B000C4F8243129237A1CC4F80021E35584F86A
:1052C00004316B68059AFDF716BDD9F80820FEF782
:1052D000CFBD052A00F2C581573BFFF73BBB18AB9A
:1052E00043F848BDCDF81C80C4F8103144E69B68F3
:1052F0009A68012A7DF4FDAC5B681B783E2B7DF437
:10530000F8ACD4F80071FF2F11D10026394637468A
:10531000D4F8083184F8FF60D4F80C21204698476F
:10532000D4F82431C4F800610133C4F824312923AE
:105330007A1CC4F80021E35584F804316B68059A9F
:10534000FDF7D9BC48464C4902F01EFF002840F04A
:10535000FA81EB683146DA68204601F09BF8FDF7E8
:10536000C3BC059A6B68FDF7C6BC059A6B68FDF770
:10537000C2BC41462046FBF7F7F9002800F0CA807E
:1053800003782F2B40F0C6808368002B00F0C2808A
:10539000C0680137F1E7EB6893F80090B9F1000FAE
:1053A0007DF407AF3D2800F031813146EA682046A0
:1053B000A8F10208FDF7ACFBB8F1040F00F222815E
:1053C000DFE818F0FF00DE00D500CC00C300059A2E
:1053D0006B68FDF790BCF2460B4601E05B6843B397
:1053E0001A68914503D09542F8D18B42F6D009F165
:1053F00008012046FBF7A8F9814698B199F80030DA
:105400002F2B7EF404ADD4F820110029FEF603AD55
:105410004846FBF783F9814600287EF4F8AC0FB1CB
:10542000C4F810810123C4F818316B68059AFDF7A0
:1054300062BCDAF8043009F10801D4F81081204682
:10544000C4F81031FBF780F9012781460028D5D137
:10545000E6E7D8F808203146204601F01BF84A4616
:105460003146204600F0D8FF059A6B68FDF743BC33
:10547000702701082427010828250108D8F80830DA
:105480001A78012A7FF475ACD8F80C201278292AF2
:1054900008BF98466DE4D4F80071FF2F11D10026A3
:1054A00039463746D4F8083184F8FF60D4F80C2127
:1054B00020469847D4F82431C4F800610133C4F879
:1054C000243120237A1CC4F80021E35584F80431E8
:1054D000FFF72EBBD4F80071FF2F12D14FF0000858
:1054E00039464746D4F8083184F8FF80D4F80C21B7
:1054F00020469847D4F82431C4F800810133C4F819
:10550000243120237A1CC4F80021E35584F80431A7
:10551000FFF7E5BA39462046FBF7DAF9059A6B68DA
:10552000FDF7E9BBA149B86803F018F800287EF43C
:10553000D3AA3146EA682046FDF7EAFA02229C49DE
:105540002046FAF7D1FEFEF716BB03229949204602
:10555000FAF7CAFE059A6B68FDF7CDBB02229649A1
:105560002046FAF7C1FE059A6B68FDF7C4BB02221C
:1055700092492046FAF7B8FE059A6B68FDF7BBBB67
:10558000D4F80071FF2F11D1002639463746D4F8E0
:10559000083184F8FF60D4F80C2120469847D4F8ED
:1055A0002431C4F800610133C4F824316C237A1C1F
:1055B000C4F80021E35584F804316B68059AFDF7BF
:1055C0009ABBD4F80071FF2F11D100263946374617
:1055D000D4F8083184F8FF60D4F80C2120469847AD
:1055E000D4F82431C4F800610133C4F824317523A0
:1055F0007A1CC4F80021E35584F804316B68059ADD
:10560000FDF779BB059A6B68FDF775BBD4F800719F
:10561000FF2F10D139464F46D4F8083184F8FF9057
:10562000D4F80C2120469847D4F82431C4F80091CE
:105630000133C4F824312D237A1CC4F80021E3552A
:1056400084F80431B1E6C4F81421FEF7DDBC029DF4
:10565000FEF7DABCD9F80890B9F1000F3EF4D4ACEB
:1056600062E45F2BD4F800117FF462A9FF283FF6B3
:105670005FA9FF295FFA80F90FD1D4F8083184F8C7
:10568000FF80D4F80C21204698470021D4F824311B
:10569000C4F800810133C4F824314B1CC4F8003134
:1056A000574604F8019084F80491FFF734B9CCF818
:1056B00000109CE65A463146204600F0EBFE3A4682
:1056C0003146204600F0A8FE52463146204600F002
:1056D000E1FE03223A492046FAF706FE4A463146E1
:1056E000204600F0D7FE059A6B68FDF704BB059ACB
:1056F0006B68FDF700BB059A6B68FDF7FCBA0522E5
:1057000030492046FAF7F0FD059A6B68FDF7F3BAC9
:105710004A463146204600F07FFEFDF70DBE0123CC
:10572000C4F818316B68FDF7E6BAD36831461B78C8
:105730002046292B1CBF0123C4F81831926800F0C1
:10574000A9FEFDF786BA3A463146204600F064FECF
:10575000FFE59A68916801297DF46BAA5268127876
:105760003E2A7DF466AAD4F80071FF2F10D1394685
:10577000474684F8FF00D4F80831D4F80C212046BD
:105780009847D4F82431C4F800810133C4F8243197
:1057900028237A1CC4F80021E35584F80431AB684F
:1057A000FDF747BA00231E4404E500BF8825010821
:1057B00090250108402701083C27010838270108E7
:1057C0002C2701084427010813782DE9F047033BF3
:1057D000154604460E464C2B00F2C182DFE813F05A
:1057E0007500BF02BF02BF02BF02BF02BF02BF02FD
:1057F000BF02BF02BF02BF02BF02BF02BF02BF02A1
:10580000BF02BF02BF02BF02BF02BF027A00A000F8
:10581000C6007A00A000C600EB000801250148017F
:10582000670174024E029902BF02BF02BF02BF02AB
:105830008401BF02CB01BF02BF02BF02BF02BF0291
:10584000BF02BF02BF02BF02BF02BF02BF02BF0250
:10585000BF02BF02BF02BF02BF02BF02BF02BF0240
:10586000BF02BF02BF02BF02BF02BF02BF02BF0230
:10587000BF02F201BF0227024D00D64F4FF00009D0
:10588000D0F8003107F1060818E01946D4F80C21C9
:10589000D4F8083184F8FF9020469847012300216E
:1058A000D4F824211A44C4F824214745C4F800310F
:1058B00004F801A084F804A100F05682FF2B17F829
:1058C00001ABE2D019460133EFE7AA68BDE8F04723
:1058D000FDF71EB9C04D0027D0F8001105F10906EB
:1058E00017E0D4F80831D4F80C2184F8FF70204672
:1058F000984701210022D4F824310B44C4F8243104
:10590000AE42C4F8001104F8028084F8048100F06B
:10591000E980FF2915F8018FE3D00A460131EFE74E
:10592000AE4D0027D0F8001105F1090617E0D4F8B4
:105930000831D4F80C2184F8FF70204698470121E3
:105940000022D4F824310B44C4F82431AE42C4F808
:10595000001104F8028084F8048100F0C380FF295C
:1059600015F8018FE3D00A460131EFE79C4D00277F
:10597000D0F80011AE1D17E0D4F80831D4F80C218E
:1059800084F8FF702046984701210022D4F8243182
:105990000B44C4F82431B542C4F8001104F8028065
:1059A00084F8048100F09E80FF2915F8018BE3D074
:1059B0000A460131EFE7D0F80031FF2B10D1002566
:1059C0001946D0F80C21D0F8083180F8FF509847DC
:1059D0002B46D4F82421C4F800510132C4F8242104
:1059E0002022591CC4F80011E25484F8042160E01C
:1059F000D0F80031FF2B10D100251946D0F80C212A
:105A0000D0F8083180F8FF5098472B46D4F824216D
:105A1000C4F800510132C4F824212022591CC4F8D2
:105A20000011E25484F8042150E1D0F80031FF2B3A
:105A300010D100271946D0F80C21D0F8083180F891
:105A4000FF7098473B46D4F82421C4F80071013216
:105A5000C4F824212022591CC4F80011E25484F80F
:105A600004213146EA682046BDE8F047FDF750B80A
:105A700011F0040636D1D0F80031FF2B0FD11946B2
:105A8000D0F80C21D0F8083180F8FF6098473346F1
:105A9000D4F82421C4F800610132C4F824212A2258
:105AA000591CC4F80011E25484F804211AE0D0F81B
:105AB0000011FF2940F0A1810025D4F80831D4F865
:105AC0000C2184F8FF502046984701222946D4F83B
:105AD00024311344C4F824312623C4F8002163542C
:105AE00084F80431BDE8F08790F80431282B19D0F0
:105AF000D0F80011FF2940F084810027D0F8083148
:105B0000D0F80C2180F8FF70984701223946D4F86C
