:020000040800F2
:1000000000C0002025020008E1030008ED030008FD
:10001000F3030008F9030008FF03000800000000D4
:1000200000000000000000000000000005040008BF
:1000300011040008000000001D0400082904000845
:1000400069020008690200086902000869020008E4
:1000500069020008690200086902000869020008D4
:1000600069020008690200086902000869020008C4
:1000700069020008690200086902000869020008B4
:1000800069020008690200086902000869020008A4
:100090006902000869020008690200086902000894
:1000A0006902000869020008690200086902000884
:1000B00069020008690200080000000069020008E7
:1000C000690200080000000000000000690200084A
:1000D000000000006902000869020008000000003A
:1000E00069020008690200086902000800000000B7
:1000F0000000000000000000000000000000000000
:0C01000000000000000000005FF808F1A3
:10010C0010B5054C237833B9044B13B10448AFF345
:10011C0000800123237010BD30040020000000007B
:10012C001405000808B5034B1BB103490348AFF392
:10013C00008008BD000000003404002014050008F5
:10014C00002301461A46184600F014B838B5074D7E
:10015C00074C2C1BA41005D0013C55F8043D9847C6
:10016C00002CF9D1BDE8384000F0D4B944050008A2
:10017C00400500082DE9F047254C2568D5F8484185
:10018C000646884692469946C4B360681F2817DC19
:10019C00431C76B104EB80050122C5F888A0D4F885
:1001AC00881182401143022EC4F88811C5F80891B9
:1001BC001ED00230636044F820800020BDE8F08738
:1001CC00144B03B34FF4C870AFF300800446D0B1A6
:1001DC00D5F84831002780E88800C5F848413846F2
:1001EC000123C4F88871C4F88C71002EE1D0D1E7DA
:1001FC00D4F88C110A43C4F88C21DAE705F5A674FF
:10020C00C5F84841C1E74FF0FF30BDE8F08700BFAB
:10021C002C05000800000000002103E00A4B5B588D
:10022C004350043109480A4B42189A42F6D3094A02
:10023C0002E0002342F8043B074B9A42F9D300F04A
:10024C000FF800F019F97047440500080000002071
:10025C00300400203004002058040020FEE7000089
:10026C0080B500AF154B1B68144A43F001031360B3
:10027C00124B5A681149124B13404B600F4B1B68C1
:10028C000E4A23F0847323F4803313600B4B1B68EA
:10029C000A4A23F480231360084B5B68074A23F453
:1002AC00FE035360054B4FF41F029A6000F00CF8EC
:1002BC00044B4FF000629A6000BF80BD00100240FA
:1002CC000000FFF800ED00E080B500AF00F002F890
:1002DC0000BF80BD80B483B000AF00237B600023DF
:1002EC003B603A4B1B68394A43F480331360374BFD
:1002FC001B6803F400333B607B6801337B603B6815
:10030C00002B03D17B68B3F5A06FF0D12F4B1B688A
:10031C0003F40033002B02D001233B6001E00023E7
:10032C003B603B68012B4BD1294B1B68284A43F09F
:10033C0010031360264B1B68254A23F0030313603C
:10034C00234B1B68224A43F0020313601F4B1F4AC6
:10035C005B6853601D4B1D4A5B6853601B4B5B68AD
:10036C001A4A43F480635360184B5B68174A23F4B2
:10037C007C135360154B5B68144A43F4E8135360C9
:10038C00124B1B68114A43F08073136000BF0F4B74
:10039C001B6803F00073002BF9D00C4B5B680B4A05
:1003AC0023F003035360094B5B68084A43F00203D4
:1003BC00536000BF054B5B6803F00C03082BF9D1AD
:1003CC0000BF0C37BD4680BC704700BF0010024018
:1003DC000020024080B400AF00BFBD4680BC704717
:1003EC0080B400AFFEE780B400AFFEE780B400AF8E
:1003FC00FEE780B400AFFEE780B400AF00BFBD469F
:10040C0080BC704780B400AF00BFBD4680BC704755
:10041C0080B400AF00BFBD4680BC704780B400AF55
:10042C00044B1B680133034A136000BFBD4680BCFC
:10043C00704700BF4C04002080B485B000AFF8605A
:10044C00B9607A60FB68BA681A60FB687A685A60AF
:10045C00FB6818461437BD4680BC704780B483B027
:10046C0000AF78607B681A687B685B681344184639
:10047C000C37BD4680BC704780B584B000AF0C4BC8
:10048C001B68FB600A4B5B68BB600948FFF7E6FF23
:10049C007860FA68BB681344002B04DC7B68002B83
:1004AC0001DC012300E0FEE718461037BD4680BD95
:1004BC005004002080B582B000AF786039607B6852
:1004CC00012B09D13B684FF6FF72934204D12222D3
:1004DC000C210348FFF7B0FF00BF0837BD4680BDB5
:1004EC005004002080B500AF4FF6FF710120FFF7DC
:1004FC00E1FF80BD024B13B10248FFF721BE7047EC
:10050C000000000059010008F8B500BFF8BC08BC99
:10051C009E467047F8B500BFF8BC08BC9E467047B5
:08052C0008000020430000005C
:0C0534000105000831010008F104000876
:040540000D010008A1
:10054400080000200000000000000000F402002069
:100554005C030020C4030020000000000000000031
:100564000000000000000000000000000000000087
:10057400000000000000000000000000300500083A
:100584000000000000000000000000000000000067
:100594000000000000000000000000000000000057
:1005A4000000000000000000000000000000000047
:1005B4000000000000000000000000000000000037
:1005C4000000000000000000000000000000000027
:1005D4000000000000000000000000000000000017
:1005E4000000000000000000000000000000000007
:1005F40001000000000000000E33CDAB34126DE6A4
:10060400ECDE05000B00000000000000000000000C
:1006140000000000000000000000000000000000D6
:1006240000000000000000000000000000000000C6
:1006340000000000000000000000000000000000B6
:1006440000000000000000000000000000000000A6
:0400000508000225C8
:00000001FF
